No.     Time           Source                Destination           Protocol Length Info
      1 0.000000       0x0103                0x0203                IEEE 802.15.4 53     Data, Dst: 0x0203, Src: 0x0103

0000  61 88 84 32 33 03 02 03 01 b5 00 fd 1c 00 00 01   a..23...........
0010  03 01 21 00 00 d3 e8 0f 00 00 00 00 00 00 00 00   ..!.............
0020  00 36 01 00 00 3f 01 00 00 00 00 00 00 00 00 7d   .6...?.........}
0030  7f 8b a6 85 96                                    .....

      3 0.096725       0x0103                0x0203                IEEE 802.15.4 48     Data, Dst: 0x0203, Src: 0x0103

0000  61 88 85 32 33 03 02 03 01 b6 00 fd 17 00 00 02   a..23...........
0010  03 01 fd 00 00 04 45 4b 46 32 20 49 4d 55 31 20   ......EKF2 IMU1 
0020  66 6f 72 63 65 64 20 72 65 73 65 74 c2 dc 12 b0   forced reset....

No.     Time           Source                Destination           Protocol Length Info
      5 0.135389       0x0103                0x0203                IEEE 802.15.4 106    Data, Dst: 0x0203, Src: 0x0103

0000  61 88 86 32 33 03 02 03 01 b7 00 fd 29 00 00 03   a..23.......)...
0010  03 01 fd 00 00 06 45 4b 46 32 20 49 4d 55 31 20   ......EKF2 IMU1 
0020  69 6e 69 74 69 61 6c 20 79 61 77 20 61 6c 69 67   initial yaw alig
0030  6e 6d 65 6e 74 20 63 6f 6d 70 6c 65 74 65 97 2a   nment complete.*
0040  fd 1c 00 00 04 03 01 21 00 00 51 e9 0f 00 00 00   .......!..Q.....
0050  00 00 00 00 00 00 ae 01 00 00 b5 01 00 00 00 00   ................
0060  00 00 00 00 7c 7f e9 b9 e3 9d                     ....|.....

No.     Time           Source                Destination           Protocol Length Info
      7 0.258639       0x0103                0x0203                IEEE 802.15.4 77     Data, Dst: 0x0203, Src: 0x0103

0000  61 88 87 32 33 03 02 03 01 b8 00 fd 1f 00 00 05   a..23...........
0010  03 01 01 00 00 0f fc 60 13 0f 1c 60 10 0f 9c 50   .......`...`...P
0020  01 ea 01 00 00 ff ff 00 00 00 00 00 00 00 00 00   ................
0030  00 00 00 ff c1 b0 fd 16 00 00 06 03 01 c1 00 00   ................
0040  00 00 00 00 9b 25 0c 3b 14 69 8d 91 05            .....%.;.i...

No.     Time           Source                Destination           Protocol Length Info
      9 0.276947       0x0103                0x0203                IEEE 802.15.4 106    Data, Dst: 0x0203, Src: 0x0103

0000  61 88 88 32 33 03 02 03 01 b9 00 3b 5e 0a fc 3d   a..23......;^..=
0010  00 00 00 00 a5 01 fb 16 fd 1c 00 00 07 03 01 1e   ................
0020  00 00 d2 e9 0f 00 d8 c2 a2 3d 67 04 0a 3b 74 53   .........=g..;tS
0030  16 bf 32 5b c2 ba 28 29 25 3a 44 1e 9b 3b d3 68   ..2[..()%:D..;.h
0040  fd 1c 00 00 08 03 01 21 00 00 d2 e9 0f 00 00 00   .......!........
0050  00 00 00 00 00 00 68 01 00 00 6f 01 00 00 00 00   ......h...o.....
0060  00 00 00 00 7c 7f 37 5d 67 62                     ....|.7]gb

No.     Time           Source                Destination           Protocol Length Info
     11 0.319436       0x0103                0x0203                IEEE 802.15.4 34     Data, Dst: 0x0203, Src: 0x0103
     
0000  61 88 89 32 33 03 02 03 01 ba 00 fd 09 00 00 09   a..23...........
0010  03 01 00 00 00 00 00 00 00 02 03 51 03 03 62 dc   ...........Q..b.
0020  16 c1                                             ..
 
No.     Time           Source                Destination           Protocol Length Info
     13 0.375874       0x0103                0x0203                IEEE 802.15.4 53     Data, Dst: 0x0203, Src: 0x0103

0000  61 88 8a 32 33 03 02 03 01 bb 00 fd 1c 00 00 0a   a..23...........
0010  03 01 21 00 00 4a ea 0f 00 00 00 00 00 00 00 00   ..!..J..........
0020  00 7c 01 00 00 7d 01 00 00 01 00 00 00 00 00 7b   .|...}.........{
0030  7f c6 b8 d1 e5                                    .....

No.     Time           Source                Destination           Protocol Length Info
     15 0.500405       0x0103                0x0203                IEEE 802.15.4 53     Data, Dst: 0x0203, Src: 0x0103

0000  61 88 8b 32 33 03 02 03 01 bc 00 fd 1c 00 00 0b   a..23...........
0010  03 01 21 00 00 c7 ea 0f 00 00 00 00 00 00 00 00   ..!.............
0020  00 fa 00 00 00 01 01 00 00 01 00 00 00 00 00 7b   ...............{
0030  7f 0e 38 90 86                                    ..8..                        

No.     Time           Source                Destination           Protocol Length Info
     17 0.625839       0x0103                0x0203                IEEE 802.15.4 53     Data, Dst: 0x0203, Src: 0x0103

0000  61 88 8c 32 33 03 02 03 01 bd 00 fd 1c 00 00 0c   a..23...........
0010  03 01 21 00 00 44 eb 0f 00 00 00 00 00 00 00 00   ..!..D..........
0020  00 7c 01 00 00 80 01 00 00 01 00 00 00 00 00 7a   .|.............z
0030  7f 1b 81 18 a7                                    .....

No.     Time           Source                Destination           Protocol Length Info
     19 0.759569       0x0103                0x0203                IEEE 802.15.4 93     Data, Dst: 0x0203, Src: 0x0103

0000  61 88 8d 32 33 03 02 03 01 be 00 fd 1c 00 00 0d   a..23...........
0010  03 01 1e 00 00 c1 eb 0f 00 a8 bd a2 3d b1 9b 05   ............=...
0020  3b a2 6d 16 bf b0 51 73 b9 20 a6 2c b9 0c d7 8f   ;.m...Qs. .,....
0030  3b f7 67 fd 1c 00 00 0e 03 01 21 00 00 c4 eb 0f   ;.g.......!.....
0040  00 00 00 00 00 00 00 00 00 90 01 00 00 94 01 00   ................
0050  00 01 00 00 00 00 00 7a 7f 08 05 7c bb            .......z...|.

No.     Time           Source                Destination           Protocol Length Info
     21 0.764271       0x0103                0x0203                IEEE 802.15.4 93     Data, Dst: 0x0203, Src: 0x0103

0000  61 88 8d 32 33 03 02 03 01 be 00 fd 1c 00 00 0d   a..23...........
0010  03 01 1e 00 00 c1 eb 0f 00 a8 bd a2 3d b1 9b 05   ............=...
0020  3b a2 6d 16 bf b0 51 73 b9 20 a6 2c b9 0c d7 8f   ;.m...Qs. .,....
0030  3b f7 67 fd 1c 00 00 0e 03 01 21 00 00 c4 eb 0f   ;.g.......!.....
0040  00 00 00 00 00 00 00 00 00 90 01 00 00 94 01 00   ................
0050  00 01 00 00 00 00 00 7a 7f 08 05 7c bb            .......z...|.


No.     Time           Source                Destination           Protocol Length Info
     24 0.822007       0x0000                0x09fd                ZigBee   34     Unknown Command


0000  61 88 d1 32 33 03 01 03 02 05 00 fd 09 00 00 01   a..23...........
0010  ff be 00 00 00 00 00 00 00 06 08 c0 04 03 f4 fd   ................
0020  af e4                                             ..

No.     Time           Source                Destination           Protocol Length Info
     26 0.875919       0x0103                0x0203                IEEE 802.15.4 53     Data, Dst: 0x0203, Src: 0x0103

0000  61 88 8e 32 33 03 02 03 01 bf 00 fd 1c 00 00 0f   a..23...........
0010  03 01 21 00 00 3f ec 0f 00 00 00 00 00 00 00 00   ..!..?..........
0020  00 fe 01 00 00 05 02 00 00 01 00 00 00 00 00 79   ...............y
0030  7f 1d 47 7a c9                                    ..Gz.

No.     Time           Source                Destination           Protocol Length Info
     28 1.000790       0x0103                0x0203                IEEE 802.15.4 53     Data, Dst: 0x0203, Src: 0x0103

0000  61 88 8f 32 33 03 02 03 01 c0 00 fd 1c 00 00 10   a..23...........
0010  03 01 21 00 00 bb ec 0f 00 00 00 00 00 00 00 00   ..!.............
0020  00 90 01 00 00 91 01 00 00 01 00 00 00 00 00 78   ...............x
0030  7f fa c0 bf f5                                    .....

No.     Time           Source                Destination           Protocol Length Info
     30 1.126056       0x0103                0x0203                IEEE 802.15.4 53     Data, Dst: 0x0203, Src: 0x0103

0000  61 88 90 32 33 03 02 03 01 c1 00 fd 1c 00 00 11   a..23...........
0010  03 01 21 00 00 39 ed 0f 00 00 00 00 00 00 00 00   ..!..9..........
0020  00 30 02 00 00 37 02 00 00 01 00 00 00 00 00 77   .0...7.........w
0030  7f 8f f1 97 af                                    .....

No.     Time           Source                Destination           Protocol Length Info
     32 1.255613       0x0103                0x0203                IEEE 802.15.4 77     Data, Dst: 0x0203, Src: 0x0103
     
0000  61 88 91 32 33 03 02 03 01 c2 00 fd 1f 00 00 12   a..23...........
0010  03 01 01 00 00 0f fc 60 13 0f 1c 60 10 0f 9c 50   .......`...`...P
0020  01 f0 01 00 00 ff ff 00 00 00 00 00 00 00 00 00   ................
0030  00 00 00 ff 76 e1 fd 16 00 00 13 03 01 c1 00 00   ....v...........
0040  00 00 00 00 b2 6f 0e 3b bb fd 73 8b 7c            .....o.;..s.|

No.     Time           Source                Destination           Protocol Length Info
     34 1.274129       0x0103                0x0203                IEEE 802.15.4 106    Data, Dst: 0x0203, Src: 0x0103

0000  61 88 92 32 33 03 02 03 01 c3 00 3a b7 0e f8 3d   a..23......:...=
0010  00 00 00 00 a5 01 2b 99 fd 1c 00 00 14 03 01 1e   ......+.........
0020  00 00 b5 ed 0f 00 1c dd a2 3d b1 6b 04 3b 09 90   .........=.k.;..
0030  16 bf 61 ac fe 39 3c 1c eb 39 e4 7b 90 3b 21 e6   ..a..9<..9.{.;!.
0040  fd 1c 00 00 15 03 01 21 00 00 b8 ed 0f 00 00 00   .......!........
0050  00 00 00 00 00 00 fa 00 00 00 fb 00 00 00 01 00   ................
0060  00 00 00 00 77 7f 1a 17 b0 7a                     ....w....z

No.     Time           Source                Destination           Protocol Length Info
     36 1.318952       0x0000                0x09fd                ZigBee   34     Unknown Command

0000  61 88 93 32 33 03 02 03 01 c4 00 fd 09 00 00 16   a..23...........
0010  03 01 00 00 00 00 00 00 00 02 03 51 03 03 6d 9f   ...........Q..m.
0020  6b dd                                             k.

No.     Time           Source                Destination           Protocol Length Info
     38 1.375741       0x0000                0x1cfd                ZigBee   53     Route Request, Dst: 0x3300, Src: 0x0000

0000  61 88 94 32 33 03 02 03 01 c5 00 fd 1c 00 00 17   a..23...........
0010  03 01 21 00 00 33 ee 0f 00 00 00 00 00 00 00 00   ..!..3..........
0020  00 a4 01 00 00 a7 01 00 00 01 00 00 00 00 00 76   ...............v
0030  7f 12 5a 4d a2                                    ..ZM.


No.     Time           Source                Destination           Protocol Length Info
     40 1.500443       0x0103                0x0203                IEEE 802.15.4 53     Data, Dst: 0x0203, Src: 0x0103

0000  61 88 95 32 33 03 02 03 01 c6 00 fd 1c 00 00 18   a..23...........
0010  03 01 21 00 00 af ee 0f 00 00 00 00 00 00 00 00   ..!.............
0020  00 ae 01 00 00 b0 01 00 00 01 00 00 00 00 00 75   ...............u
0030  7f 0c 9c ba c4                                    .....

No.     Time           Source                Destination           Protocol Length Info
     42 1.625704       0x0103                0x0203                IEEE 802.15.4 53     Data, Dst: 0x0203, Src: 0x0103

0000  61 88 96 32 33 03 02 03 01 c7 00 fd 1c 00 00 19   a..23...........
0010  03 01 21 00 00 2d ef 0f 00 00 00 00 00 00 00 00   ..!..-..........
0020  00 68 01 00 00 6f 01 00 00 01 00 00 00 00 00 75   .h...o.........u
0030  7f f1 0c b4 7f                                    .....

No.     Time           Source                Destination           Protocol Length Info
     44 1.758912       0x0000                0x1cfd                ZigBee   93     Unknown Command

0000  61 88 97 32 33 03 02 03 01 c8 00 fd 1c 00 00 1a   a..23...........
0010  03 01 1e 00 00 a9 ef 0f 00 ae 01 a3 3d 96 d2 04   ............=...
0020  3b cb b0 16 bf c7 3d 95 b9 ec 0d 98 39 f9 bf 7d   ;.....=.....9..}
0030  3b 24 52 fd 1c 00 00 1b 03 01 21 00 00 a9 ef 0f   ;$R.......!.....
0040  00 00 00 00 00 00 00 00 00 9a 01 00 00 9c 01 00   ................
0050  00 01 00 00 00 00 00 74 7f 62 ce b2 0e            .......t.b...

No.     Time           Source                Destination           Protocol Length Info
     46 1.767082       0x0000                0x22fd                ZigBee   59     Many-to-One Route Request, Dst: 0x0600, Src: 0x0000

0000  61 88 98 32 33 03 02 03 01 c9 00 fd 22 00 00 1c   a..23......."...
0010  03 01 fd 00 00 06 45 4b 46 32 20 49 4d 55 31 20   ......EKF2 IMU1 
0020  74 69 6c 74 20 61 6c 69 67 6e 6d 65 6e 74 20 63   tilt alignment c
0030  6f 6d 70 6c 65 74 65 6f d3 f9 5f                  ompleteo.._

No.     Time           Source                Destination           Protocol Length Info
     48 1.824500       0x0203                0x0103                IEEE 802.15.4 34     Data, Dst: 0x0103, Src: 0x0203

0000  61 88 d2 32 33 03 01 03 02 06 00 fd 09 00 00 02   a..23...........
0010  ff be 00 00 00 00 00 00 00 06 08 c0 04 03 d5 67   ...............g
0020  d9 26                                             .&

No.     Time           Source                Destination           Protocol Length Info
     50 1.875799       0x0103                0x0203                IEEE 802.15.4 53     Data, Dst: 0x0203, Src: 0x0103

0000  61 88 99 32 33 03 02 03 01 ca 00 fd 1c 00 00 1d   a..23...........
0010  03 01 21 00 00 26 f0 0f 00 00 00 00 00 00 00 00   ..!..&..........
0020  00 72 01 00 00 7a 01 00 00 01 00 00 00 00 00 73   .r...z.........s
0030  7f fd 46 53 27                                    ..FS'

No.     Time           Source                Destination           Protocol Length Info
     52 2.000481       0x0103                0x0203                IEEE 802.15.4 53     Data, Dst: 0x0203, Src: 0x0103

0000  61 88 9a 32 33 03 02 03 01 cb 00 fd 1c 00 00 1e   a..23...........
0010  03 01 21 00 00 a3 f0 0f 00 00 00 00 00 00 00 00   ..!.............
0020  00 b4 00 00 00 ba 00 00 00 01 00 00 00 00 00 73   ...............s
0030  7f 67 99 05 19                                    .g...

No.     Time           Source                Destination           Protocol Length Info
     54 2.126086       0x0103                0x0203                IEEE 802.15.4 53     Data, Dst: 0x0203, Src: 0x0103

0000  61 88 9b 32 33 03 02 03 01 cc 00 fd 1c 00 00 1f   a..23...........
0010  03 01 21 00 00 21 f1 0f 00 00 00 00 00 00 00 00   ..!..!..........
0020  00 04 01 00 00 0c 01 00 00 01 00 00 00 00 00 72   ...............r
0030  7f b2 fc 8f 24                                    ....$

No.     Time           Source                Destination           Protocol Length Info
     56 2.262383       0x0103                0x0203                IEEE 802.15.4 113    Data, Dst: 0x0203, Src: 0x0103

0000  61 88 9c 32 33 03 02 03 01 cd 00 fd 1f 00 00 20   a..23.......... 
0010  03 01 01 00 00 0f fc 60 13 0f 1c 60 10 0f 9c 50   .......`...`...P
0020  01 f0 01 00 00 ff ff 00 00 00 00 00 00 00 00 00   ................
0030  00 00 00 ff 98 b0 fd 16 00 00 21 03 01 c1 00 00   ..........!.....
0040  00 00 00 00 5d e5 2d 3b c8 da a7 3a 0d 40 f5 3d   ....].-;...:.@.=
0050  00 00 00 00 a5 01 f8 05 fd 1c 00 00 22 03 01 1e   ............"...
0060  00 00 a3 f1 0f 00 a7 e7 a2 3d 69 04 08 3b 7e 4b   .........=i..;~K
0070  d2                                                .

No.     Time           Source                Destination           Protocol Length Info
     58 2.271612       0x0103                0x0203                IEEE 802.15.4 70     Data, Dst: 0x0203, Src: 0x0103
     
0000  61 88 9d 32 33 03 02 03 01 ce 00 d1 16 bf 60 16   a..23.........`.
0010  3c ba c0 24 e9 39 48 54 8f 3b c6 c8 fd 1c 00 00   <..$.9HT.;......
0020  23 03 01 21 00 00 a5 f1 0f 00 00 00 00 00 00 00   #..!............
0030  00 00 3a 02 00 00 43 02 00 00 01 00 00 00 00 00   ..:...C.........
0040  71 7f 6f 1b 6f 86                                 q.o.o.

No.     Time           Source                Destination           Protocol Length Info
     60 2.318833       0x0103                0x0203                IEEE 802.15.4 34     Data, Dst: 0x0203, Src: 0x0103

0000  61 88 9e 32 33 03 02 03 01 cf 00 fd 09 00 00 24   a..23..........$
0010  03 01 00 00 00 00 00 00 00 02 03 51 03 03 d5 61   ...........Q...a
0020  f9 5e                                             .^

No.     Time           Source                Destination           Protocol Length Info
     62 2.375455       0x0103                0x0203                IEEE 802.15.4 53     Data, Dst: 0x0203, Src: 0x0103

0000  61 88 9f 32 33 03 02 03 01 d0 00 fd 1c 00 00 25   a..23..........%
0010  03 01 21 00 00 1a f2 0f 00 00 00 00 00 00 00 00   ..!.............
0020  00 cc 01 00 00 d2 01 00 00 01 00 00 00 00 00 70   ...............p
0030  7f ee f1 67 aa                                    ...g.

No.     Time           Source                Destination           Protocol Length Info
     64 2.500335       0x0103                0x0203                IEEE 802.15.4 53     Data, Dst: 0x0203, Src: 0x0103

0000  61 88 a0 32 33 03 02 03 01 d1 00 fd 1c 00 00 26   a..23..........&
0010  03 01 21 00 00 97 f2 0f 00 00 00 00 00 00 00 00   ..!.............
0020  00 dc 00 00 00 e4 00 00 00 01 00 00 00 00 00 70   ...............p
0030  7f a9 84 03 28                                    ....(

No.     Time           Source                Destination           Protocol Length Info
     66 2.625606       0x0103                0x0203                IEEE 802.15.4 53     Data, Dst: 0x0203, Src: 0x0103

0000  61 88 a1 32 33 03 02 03 01 d2 00 fd 1c 00 00 27   a..23..........'
0010  03 01 21 00 00 14 f3 0f 00 00 00 00 00 00 00 00   ..!.............
0020  00 6c 02 00 00 70 02 00 00 01 00 00 00 00 00 6f   .l...p.........o
0030  7f f6 2e c1 eb                                    .....

No.     Time           Source                Destination           Protocol Length Info
     68 2.758785       0x0103                0x0203                IEEE 802.15.4 93     Data, Dst: 0x0203, Src: 0x0103

0000  61 88 a2 32 33 03 02 03 01 d3 00 fd 1c 00 00 28   a..23..........(
0010  03 01 1e 00 00 91 f3 0f 00 5f f3 a2 3d 26 e8 09   ........._..=&..
0020  3b f4 f1 16 bf f8 a0 22 3a 60 46 98 b7 19 45 67   ;......":`F...Eg
0030  3b 18 cf fd 1c 00 00 29 03 01 21 00 00 91 f3 0f   ;......)..!.....
0040  00 00 00 00 00 00 00 00 00 ae 01 00 00 b3 01 00   ................
0050  00 01 00 00 00 00 00 6e 7f e4 a3 7e ae            .......n...~.

No.     Time           Source                Destination           Protocol Length Info
     70 2.822138       0x0203                0x0103                IEEE 802.15.4 34     Data, Dst: 0x0103, Src: 0x0203

0000  61 88 d3 32 33 03 01 03 02 07 00 fd 09 00 00 03   a..23...........
0010  ff be 00 00 00 00 00 00 00 06 08 c0 04 03 c5 e9   ................
0020  0b 67                                             .g

No.     Time           Source                Destination           Protocol Length Info
     72 2.875670       0x0103                0x0203                IEEE 802.15.4 53     Data, Dst: 0x0203, Src: 0x0103

0000  61 88 a3 32 33 03 02 03 01 d4 00 fd 1c 00 00 2a   a..23..........*
0010  03 01 21 00 00 0f f4 0f 00 00 00 00 00 00 00 00   ..!.............
0020  00 5e 01 00 00 5e 01 00 00 01 00 00 00 00 00 6e   .^...^.........n
0030  7f c1 e6 31 79                                    ...1y

No.     Time           Source                Destination           Protocol Length Info
     74 3.000184       0x0103                0x0203                IEEE 802.15.4 53     Data, Dst: 0x0203, Src: 0x0103

0000  61 88 a4 32 33 03 02 03 01 d5 00 fd 1c 00 00 2b   a..23..........+
0010  03 01 21 00 00 8b f4 0f 00 00 00 00 00 00 00 00   ..!.............
0020  00 6c 02 00 00 70 02 00 00 01 00 00 00 00 00 6d   .l...p.........m
0030  7f b0 3e 40 0d                                    ..>@.

No.     Time           Source                Destination           Protocol Length Info
     76 3.125618       0x0103                0x0203                IEEE 802.15.4 53     Data, Dst: 0x0203, Src: 0x0103

0000  61 88 a5 32 33 03 02 03 01 d6 00 fd 1c 00 00 2c   a..23..........,
0010  03 01 21 00 00 08 f5 0f 00 00 00 00 00 00 00 00   ..!.............
0020  00 78 00 00 00 7f 00 00 00 01 00 00 00 00 00 6c   .x.............l
0030  7f ec 86 f0 e5                                    .....

No.     Time           Source                Destination           Protocol Length Info
     78 3.262815       0x0103                0x0203                IEEE 802.15.4 113    Data, Dst: 0x0203, Src: 0x0103

0000  61 88 a6 32 33 03 02 03 01 d7 00 fd 1f 00 00 2d   a..23..........-
0010  03 01 01 00 00 0f fc 60 13 0f 1c 60 10 0f 9c 50   .......`...`...P
0020  01 ee 01 00 00 ff ff 00 00 00 00 00 00 00 00 00   ................
0030  00 00 00 ff fa 5b fd 16 00 00 2e 03 01 c1 00 00   .....[..........
0040  00 00 00 00 a0 d8 43 3b 75 b3 26 3b c3 6d e4 3d   ......C;u.&;.m.=
0050  00 00 00 00 a5 01 18 eb fd 1c 00 00 2f 03 01 1e   ............/...
0060  00 00 85 f5 0f 00 3f 0b a3 3d dd 2b 0a 3b 29 e4   ......?..=.+.;).
0070  4e                                                N

No.     Time           Source                Destination           Protocol Length Info
     80 3.271676       0x0103                0x0203                IEEE 802.15.4 70     Data, Dst: 0x0203, Src: 0x0103

0000  61 88 a7 32 33 03 02 03 01 d8 00 0f 17 bf a7 a6   a..23...........
0010  95 39 4d 1c 23 ba 4e c4 87 3b b2 f1 fd 1c 00 00   .9M.#.N..;......
0020  30 03 01 21 00 00 8b f5 0f 00 00 00 00 00 00 00   0..!............
0030  00 00 90 01 00 00 91 01 00 00 01 00 00 00 00 00   ................
0040  6c 7f bb b2 b5 03                                 l.....

No.     Time           Source                Destination           Protocol Length Info
     82 3.318894       0x0103                0x0203                IEEE 802.15.4 34     Data, Dst: 0x0203, Src: 0x0103

0000  61 88 a8 32 33 03 02 03 01 d9 00 fd 09 00 00 31   a..23..........1
0010  03 01 00 00 00 00 00 00 00 02 03 51 03 03 2f 66   ...........Q../f
0020  6d e0                                             m.

No.     Time           Source                Destination           Protocol Length Info
     84 3.341600       0x0103                0x0203                IEEE 802.15.4 48     Data, Dst: 0x0203, Src: 0x0103

0000  61 88 a9 32 33 03 02 03 01 da 00 fd 17 00 00 32   a..23..........2
0010  03 01 fd 00 00 07 4c 75 61 3a 20 4e 6f 20 73 63   ......Lua: No sc
0020  72 69 70 74 73 20 74 6f 20 72 75 6e f4 d6 5c 0f   ripts to run..\.

No.     Time           Source                Destination           Protocol Length Info
     86 3.375340       0x0103                0x0203                IEEE 802.15.4 53     Data, Dst: 0x0203, Src: 0x0103

0000  61 88 aa 32 33 03 02 03 01 db 00 fd 1c 00 00 33   a..23..........3
0010  03 01 21 00 00 02 f6 0f 00 00 00 00 00 00 00 00   ..!.............
0020  00 cc 01 00 00 d2 01 00 00 01 00 00 00 00 00 6b   ...............k
0030  7f 80 9a a1 8c                                    .....

No.     Time           Source                Destination           Protocol Length Info
     88 3.500219       0x0103                0x0203                IEEE 802.15.4 53     Data, Dst: 0x0203, Src: 0x0103

0000  61 88 ab 32 33 03 02 03 01 dc 00 fd 1c 00 00 34   a..23..........4
0010  03 01 21 00 00 7f f6 0f 00 00 00 00 00 00 00 00   ..!.............
0020  00 90 01 00 00 96 01 00 00 01 00 00 00 00 00 6a   ...............j
0030  7f a1 0a 3f bb                                    ...?.

No.     Time           Source                Destination           Protocol Length Info
     90 3.625528       0x0103                0x0203                IEEE 802.15.4 53     Data, Dst: 0x0203, Src: 0x0103

0000  61 88 ac 32 33 03 02 03 01 dd 00 fd 1c 00 00 35   a..23..........5
0010  03 01 21 00 00 fc f6 0f 00 00 00 00 00 00 00 00   ..!.............
0020  00 b8 01 00 00 be 01 00 00 01 00 00 00 00 00 6a   ...............j
0030  7f a7 6a c1 4c                                    ..j.L

No.     Time           Source                Destination           Protocol Length Info
     92 3.758670       0x0103                0x0203                IEEE 802.15.4 93     Data, Dst: 0x0203, Src: 0x0103

0000  61 88 ad 32 33 03 02 03 01 de 00 fd 1c 00 00 36   a..23..........6
0010  03 01 1e 00 00 79 f7 0f 00 26 16 a3 3d f3 ac 09   .....y...&..=...
0020  3b 82 2c 17 bf a4 f8 76 3a 76 99 83 b9 4e 91 8b   ;.,....v:v...N..
0030  3b 4f d9 fd 1c 00 00 37 03 01 21 00 00 79 f7 0f   ;O.....7..!..y..
0040  00 00 00 00 00 00 00 00 00 3a 02 00 00 43 02 00   .........:...C..
0050  00 01 00 00 00 00 00 69 7f 4d 3d 72 93            .......i.M=r.

No.     Time           Source                Destination           Protocol Length Info
     96 3.875552       0x0103                0x0203                IEEE 802.15.4 53     Data, Dst: 0x0203, Src: 0x0103

0000  61 88 ae 32 33 03 02 03 01 df 00 fd 1c 00 00 38   a..23..........8
0010  03 01 21 00 00 f7 f7 0f 00 00 00 00 00 00 00 00   ..!.............
0020  00 8a 02 00 00 8c 02 00 00 01 00 00 00 00 00 68   ...............h
0030  7f 71 73 b0 85                                    .qs..

No.     Time           Source                Destination           Protocol Length Info
     98 4.000072       0x0103                0x0203                IPv6     53     Bogus IPv6 version (0, must be 6)

Frame (53 bytes):
0000  61 88 af 32 33 03 02 03 01 e0 00 fd 1c 00 00 39   a..23..........9
0010  03 01 21 00 00 73 f8 0f 00 00 00 00 00 00 00 00   ..!..s..........
0020  00 22 01 00 00 25 01 00 00 01 00 00 00 00 00 68   ."...%.........h
0030  7f e4 4f ce c0                                    ..O..
Reassembled 6LoWPAN (37 bytes):
0000  00 39 03 01 21 00 00 73 f8 0f 00 00 00 00 00 00   .9..!..s........
0010  00 00 00 22 01 00 00 25 01 00 00 01 00 00 00 00   ..."...%........
0020  00 68 7f e4 4f                                    .h..O

No.     Time           Source                Destination           Protocol Length Info
    100 4.125571       0x0103                0x0203                6LoWPAN  53     Data, Dst: 0x0203, Src: 0x0103

0000  61 88 b0 32 33 03 02 03 01 e1 00 fd 1c 00 00 3a   a..23..........:
0010  03 01 21 00 00 f1 f8 0f 00 00 00 00 00 00 00 00   ..!.............
0020  00 1c 02 00 00 1e 02 00 00 01 00 00 00 00 00 67   ...............g
0030  7f 4d a7 09 3b                                    .M..;

No.     Time           Source                Destination           Protocol Length Info
    102 4.255438       0x0103                0x0203                6LoWPAN  77     Data, Dst: 0x0203, Src: 0x0103

0000  61 88 b1 32 33 03 02 03 01 e2 00 fd 1f 00 00 3b   a..23..........;
0010  03 01 01 00 00 0f fc 60 13 0f 1c 60 10 0f 9c 50   .......`...`...P
0020  01 f2 01 00 00 ff ff 00 00 00 00 00 00 00 00 00   ................
0030  00 00 00 ff 53 73 fd 16 00 00 3c 03 01 c1 00 00   ....Ss....<.....
0040  00 00 00 00 20 e0 49 3b 0e 82 3f 92 9a            .... .I;..?..

No.     Time           Source                Destination           Protocol Length Info
    104 4.273958       0x0103                0x0203                6LoWPAN  106    Data, Dst: 0x0203, Src: 0x0103

0000  61 88 b2 32 33 03 02 03 01 e3 00 3b 31 43 f2 3d   a..23......;1C.=
0010  00 00 00 00 a5 01 74 dd fd 1c 00 00 3d 03 01 1e   ......t.....=...
0020  00 00 72 f9 0f 00 8e 12 a3 3d d5 a2 0d 3b 37 42   ..r......=...;7B
0030  17 bf fc 76 d1 b8 63 d1 0a 3a d9 aa ab 3b 76 c7   ...v..c..:...;v.
0040  fd 1c 00 00 3e 03 01 21 00 00 73 f9 0f 00 00 00   ....>..!..s.....
0050  00 00 00 00 00 00 ae 01 00 00 b5 01 00 00 01 00   ................
0060  00 00 00 00 67 7f ac f3 d6 92                     ....g.....

No.     Time           Source                Destination           Protocol Length Info
    106 4.318604       0x0103                0x0203                6LoWPAN  34     Data, Dst: 0x0203, Src: 0x0103

0000  61 88 b3 32 33 03 02 03 01 e4 00 fd 09 00 00 3f   a..23..........?
0010  03 01 00 00 00 00 00 00 00 02 03 51 03 03 b8 0a   ...........Q....
0020  7c 30                                             |0

No.     Time           Source                Destination           Protocol Length Info
    108 4.375414       0x0103                0x0203                6LoWPAN  53     Data, Dst: 0x0203, Src: 0x0103

0000  61 88 b4 32 33 03 02 03 01 e5 00 fd 1c 00 00 40   a..23..........@
0010  03 01 21 00 00 eb f9 0f 00 00 00 00 00 00 00 00   ..!.............
0020  00 dc 00 00 00 dc 00 00 00 01 00 00 00 00 00 66   ...............f
0030  7f 2b 56 aa 1a                                    .+V..

No.     Time           Source                Destination           Protocol Length Info
    110 4.500099       0x0103                0x0203                6LoWPAN  53     Data, Dst: 0x0203, Src: 0x0103

0000  61 88 b5 32 33 03 02 03 01 e6 00 fd 1c 00 00 41   a..23..........A
0010  03 01 21 00 00 67 fa 0f 00 00 00 00 00 00 00 00   ..!..g..........
0020  00 76 02 00 00 7b 02 00 00 01 00 00 00 00 00 66   .v...{.........f
0030  7f 41 e0 ad ad                                    .A...

No.     Time           Source                Destination           Protocol Length Info
    112 4.625516       0x0103                0x0203                6LoWPAN  53     Data, Dst: 0x0203, Src: 0x0103

0000  61 88 b6 32 33 03 02 03 01 e7 00 fd 1c 00 00 42   a..23..........B
0010  03 01 21 00 00 e5 fa 0f 00 00 00 00 00 00 00 00   ..!.............
0020  00 b8 01 00 00 bb 01 00 00 01 00 00 00 00 00 65   ...............e
0030  7f f8 b9 81 68                                    ....h

No.     Time           Source                Destination           Protocol Length Info
    114 4.755474       0x0103                0x0203                6LoWPAN  77     Data, Dst: 0x0203, Src: 0x0103

0000  61 88 b7 32 33 03 02 03 01 e8 00 fd 1c 00 00 43   a..23..........C
0010  03 01 1e 00 00 61 fb 0f 00 e5 06 a3 3d 01 36 0d   .....a......=.6.
0020  3b 19 5f 17 bf 5a f3 6b 39 7c df f2 38 29 3d 8a   ;._..Z.k9|..8)=.
0030  3b 14 da fd 1c 00 00 44 03 01 21 00 00 61 fb 0f   ;......D..!..a..
0040  00 00 00 00 00 00 00 00 00 fa 00 38 4a            ...........8J

No.     Time           Source                Destination           Protocol Length Info
    116 4.759433       0x0103                0x0203                6LoWPAN  29     Data, Dst: 0x0203, Src: 0x0103[Malformed Packet]

0000  61 88 b8 32 33 03 02 03 01 e9 00 00 00 01 01 00   a..23...........
0010  00 01 00 00 00 00 00 65 7f e2 40 d0 bf            .......e..@..

No.     Time           Source                Destination           Protocol Length Info
    118 4.822798       0x0000                0x09fd                ZigBee   34     Unknown Command

0000  61 88 d5 32 33 03 01 03 02 09 00 fd 09 00 00 05   a..23...........
0010  ff be 00 00 00 00 00 00 00 06 08 c0 04 03 96 d5   ................
0020  fa 85                                             ..

No.     Time           Source                Destination           Protocol Length Info
    120 4.875254       0x0103                0x0203                6LoWPAN  53     Data, Dst: 0x0203, Src: 0x0103

0000  61 88 b9 32 33 03 02 03 01 ea 00 fd 1c 00 00 45   a..23..........E
0010  03 01 21 00 00 de fb 0f 00 00 00 00 00 00 00 00   ..!.............
0020  00 90 01 00 00 99 01 00 00 01 00 00 00 00 00 64   ...............d
0030  7f 48 e7 fe 8a                                    .H...

No.     Time           Source                Destination           Protocol Length Info
    122 4.999953       0x0103                0x0203                6LoWPAN  53     Data, Dst: 0x0203, Src: 0x0103

0000  61 88 ba 32 33 03 02 03 01 eb 00 fd 1c 00 00 46   a..23..........F
0010  03 01 21 00 00 5b fc 0f 00 00 00 00 00 00 00 00   ..!..[..........
0020  00 40 01 00 00 42 01 00 00 01 00 00 00 00 00 63   .@...B.........c
0030  7f 66 d4 87 37                                    .f..7

No.     Time           Source                Destination           Protocol Length Info
    124 5.125362       0x0103                0x0203                IEEE 802.15.4 53     Data, Dst: 0x0203, Src: 0x0103

0000  61 88 bb 32 33 03 02 03 01 ec 00 fd 1c 00 00 47   a..23..........G
0010  03 01 21 00 00 d9 fc 0f 00 00 00 00 00 00 00 00   ..!.............
0020  00 d6 01 00 00 dd 01 00 00 01 00 00 00 00 00 63   ...............c
0030  7f b1 c2 c0 5b                                    ....[

No.     Time           Source                Destination           Protocol Length Info
    126 5.262404       0x0103                0x0203                IEEE 802.15.4 113    Data, Dst: 0x0203, Src: 0x0103

0000  61 88 bc 32 33 03 02 03 01 ed 00 fd 1f 00 00 48   a..23..........H
0010  03 01 01 00 00 0f fc 60 13 0f 1c 60 10 0f 9c 50   .......`...`...P
0020  01 ee 01 00 00 ff ff 00 00 00 00 00 00 00 00 00   ................
0030  00 00 00 ff ee 52 fd 16 00 00 49 03 01 c1 00 00   .....R....I.....
0040  00 00 00 00 4c 48 49 3b b6 6e 18 3c ca 3e e5 3d   ....LHI;.n.<.>.=
0050  00 00 00 00 a5 01 5a ba fd 1c 00 00 4a 03 01 1e   ......Z.....J...
0060  00 00 58 fd 0f 00 31 0f a3 3d 4c d3 0b 3b cc d4   ..X...1..=L..;..
0070  f6                                                .

No.     Time           Source                Destination           Protocol Length Info
    128 5.271086       0x0103                0x0203                IEEE 802.15.4 70     Data, Dst: 0x0203, Src: 0x0103

0000  61 88 bd 32 33 03 02 03 01 ee 00 80 17 bf 3d 65   a..23.........=e
0010  e3 39 f4 cf 6a 38 22 cc 89 3b 08 2e fd 1c 00 00   .9..j8"..;......
0020  4b 03 01 21 00 00 58 fd 0f 00 00 00 00 00 00 00   K..!..X.........
0030  00 00 9a 01 00 00 a2 01 00 00 01 00 00 00 00 00   ................
0040  62 7f ab cf 21 23                                 b...!#

No.     Time           Source                Destination           Protocol Length Info
    130 5.318664       0x0103                0x0203                IEEE 802.15.4 34     Data, Dst: 0x0203, Src: 0x0103

0000  61 88 be 32 33 03 02 03 01 ef 00 fd 09 00 00 4c   a..23..........L
0010  03 01 00 00 00 00 00 00 00 02 03 51 03 03 12 ec   ...........Q....
0020  8d ba                                             ..

No.     Time           Source                Destination           Protocol Length Info
    132 5.375470       0x0103                0x0203                IEEE 802.15.4 53     Data, Dst: 0x0203, Src: 0x0103

0000  61 88 bf 32 33 03 02 03 01 f0 00 fd 1c 00 00 4d   a..23..........M
0010  03 01 21 00 00 d3 fd 0f 00 00 00 00 00 00 00 00   ..!.............
0020  00 c2 01 00 00 c4 01 00 00 01 00 00 00 00 00 61   ...............a
0030  7f e9 fb ff 83                                    .....

No.     Time           Source                Destination           Protocol Length Info
    134 5.500174       0x0103                0x0203                IEEE 802.15.4 53     Data, Dst: 0x0203, Src: 0x0103

0000  61 88 c0 32 33 03 02 03 01 f1 00 fd 1c 00 00 4e   a..23..........N
0010  03 01 21 00 00 4f fe 0f 00 00 00 00 00 00 00 00   ..!..O..........
0020  00 90 01 00 00 96 01 00 00 01 00 00 00 00 00 60   ...............`
0030  7f 05 54 4e bf                                    ..TN.

No.     Time           Source                Destination           Protocol Length Info
    136 5.629933       0x0103                0x0203                IEEE 802.15.4 53     Data, Dst: 0x0203, Src: 0x0103

0000  61 88 c1 32 33 03 02 03 01 f2 00 fd 1c 00 00 4f   a..23..........O
0010  03 01 21 00 00 d1 fe 0f 00 00 00 00 00 00 00 00   ..!.............
0020  00 90 01 00 00 94 01 00 00 01 00 00 00 00 00 60   ...............`
0030  7f fd 29 2b ed                                    ..)+.

No.     Time           Source                Destination           Protocol Length Info
    138 5.758984       0x0103                0x0203                IEEE 802.15.4 93     Data, Dst: 0x0203, Src: 0x0103

0000  61 88 c2 32 33 03 02 03 01 f3 00 fd 1c 00 00 50   a..23..........P
0010  03 01 1e 00 00 49 ff 0f 00 25 f3 a2 3d d2 2f 0d   .....I...%..=./.
0020  3b bc 9f 17 bf 43 f8 a2 39 b2 43 86 39 f4 43 8f   ;....C..9.C.9.C.
0030  3b 5e 68 fd 1c 00 00 51 03 01 21 00 00 4c ff 0f   ;^h....Q..!..L..
0040  00 00 00 00 00 00 00 00 00 26 02 00 00 29 02 00   .........&...)..
0050  00 01 00 00 00 00 00 5f 7f f8 f3 aa 53            ......._....S

No.     Time           Source                Destination           Protocol Length Info
    140 5.821996       0x0203                0x0103                IEEE 802.15.4 34     Data, Dst: 0x0103, Src: 0x0203

0000  61 88 d6 32 33 03 01 03 02 0a 00 fd 09 00 00 06   a..23...........
0010  ff be 00 00 00 00 00 00 00 06 08 c0 04 03 b7 4f   ...............O
0020  8c 47                                             .G

No.     Time           Source                Destination           Protocol Length Info
    142 5.875353       0x0103                0x0203                IEEE 802.15.4 53     Data, Dst: 0x0203, Src: 0x0103

0000  61 88 c3 32 33 03 02 03 01 f4 00 fd 1c 00 00 52   a..23..........R
0010  03 01 21 00 00 c7 ff 0f 00 00 00 00 00 00 00 00   ..!.............
0020  00 68 01 00 00 6f 01 00 00 01 00 00 00 00 00 5e   .h...o.........^
0030  7f 73 8b d1 76                                    .s..v

No.     Time           Source                Destination           Protocol Length Info
    144 5.999857       0x0103                0x0203                IEEE 802.15.4 53     Data, Dst: 0x0203, Src: 0x0103

0000  61 88 c4 32 33 03 02 03 01 f5 00 fd 1c 00 00 53   a..23..........S
0010  03 01 21 00 00 43 00 10 00 00 00 00 00 00 00 00   ..!..C..........
0020  00 7c 01 00 00 7d 01 00 00 01 00 00 00 00 00 5e   .|...}.........^
0030  7f 86 b1 de ef                                    .....

No.     Time           Source                Destination           Protocol Length Info
    146 6.125253       0x0103                0x0203                IEEE 802.15.4 53     Data, Dst: 0x0203, Src: 0x0103

0000  61 88 c5 32 33 03 02 03 01 f6 00 fd 1c 00 00 54   a..23..........T
0010  03 01 21 00 00 c0 00 10 00 00 00 00 00 00 00 00   ..!.............
0020  00 72 01 00 00 74 01 00 00 01 00 00 00 00 00 5d   .r...t.........]
0030  7f 9f d1 04 70                                    ....p

No.     Time           Source                Destination           Protocol Length Info
    148 6.260466       0x0103                0x0203                IEEE 802.15.4 77     Data, Dst: 0x0203, Src: 0x0103

0000  61 88 c6 32 33 03 02 03 01 f7 00 fd 1f 00 00 55   a..23..........U
0010  03 01 01 00 00 0f fc 60 13 0f 1c 60 10 0f 9c 50   .......`...`...P
0020  01 ef 01 00 00 ff ff 00 00 00 00 00 00 00 00 00   ................
0030  00 00 00 ff 4d 1e fd 16 00 00 56 03 01 c1 00 00   ....M.....V.....
0040  00 00 00 00 b8 32 56 3b a7 49 2e be fb            .....2V;.I...

No.     Time           Source                Destination           Protocol Length Info
    150 6.278783       0x0103                0x0203                IEEE 802.15.4 106    Data, Dst: 0x0203, Src: 0x0103

0000  61 88 c7 32 33 03 02 03 01 f8 00 3c 41 bc f8 3d   a..23......<A..=
0010  00 00 00 00 a5 01 93 bc fd 1c 00 00 57 03 01 1e   ............W...
0020  00 00 47 01 10 00 e7 f1 a2 3d cd 84 0c 3b c0 b9   ..G......=...;..
0030  17 bf 08 73 16 38 02 2b bf 39 1e 19 87 3b 54 45   ...s.8.+.9...;TE
0040  fd 1c 00 00 58 03 01 21 00 00 47 01 10 00 00 00   ....X..!..G.....
0050  00 00 00 00 00 00 a8 02 00 00 b1 02 00 00 01 00   ................
0060  00 00 00 00 5d 7f 39 bd 41 ac                     ....].9.A.

No.     Time           Source                Destination           Protocol Length Info
    152 6.318370       0x0103                0x0203                IEEE 802.15.4 34     Data, Dst: 0x0203, Src: 0x0103

0000  61 88 c8 32 33 03 02 03 01 f9 00 fd 09 00 00 59   a..23..........Y
0010  03 01 00 00 00 00 00 00 00 02 03 51 03 03 e8 eb   ...........Q....
0020  51 78                                             Qx

No.     Time           Source                Destination           Protocol Length Info
    154 6.375352       0x0103                0x0203                IEEE 802.15.4 53     Data, Dst: 0x0203, Src: 0x0103

0000  61 88 c9 32 33 03 02 03 01 fa 00 fd 1c 00 00 5a   a..23..........Z
0010  03 01 21 00 00 ba 01 10 00 00 00 00 00 00 00 00   ..!.............
0020  00 cc 01 00 00 cf 01 00 00 01 00 00 00 00 00 5c   ...............\
0030  7f 1c 3e 17 66                                    ..>.f

No.     Time           Source                Destination           Protocol Length Info
    156 6.499871       0x0103                0x0203                IEEE 802.15.4 53     Data, Dst: 0x0203, Src: 0x0103

0000  61 88 ca 32 33 03 02 03 01 fb 00 fd 1c 00 00 5b   a..23..........[
0010  03 01 21 00 00 37 02 10 00 00 00 00 00 00 00 00   ..!..7..........
0020  00 c2 01 00 00 c6 01 00 00 01 00 00 00 00 00 5b   ...............[
0030  7f ba be 81 16                                    .....

No.     Time           Source                Destination           Protocol Length Info
    158 6.625465       0x0103                0x0203                IEEE 802.15.4 53     Data, Dst: 0x0203, Src: 0x0103

0000  61 88 cb 32 33 03 02 03 01 fc 00 fd 1c 00 00 5c   a..23..........\
0010  03 01 21 00 00 b5 02 10 00 00 00 00 00 00 00 00   ..!.............
0020  00 90 01 00 00 91 01 00 00 01 00 00 00 00 00 5a   ...............Z
0030  7f 0c 70 d9 2e                                    ..p..

No.     Time           Source                Destination           Protocol Length Info
    160 6.761403       0x0103                0x0203                IEEE 802.15.4 93     Data, Dst: 0x0203, Src: 0x0103

0000  61 88 cc 32 33 03 02 03 01 fd 00 fd 1c 00 00 5d   a..23..........]
0010  03 01 1e 00 00 34 03 10 00 a6 d3 a2 3d 18 97 0e   .....4......=...
0020  3b 29 da 17 bf d1 84 da ba be cd 26 3a 37 a8 92   ;).........&:7..
0030  3b 22 44 fd 1c 00 00 5e 03 01 21 00 00 36 03 10   ;"D....^..!..6..
0040  00 00 00 00 00 00 00 00 00 f0 00 00 00 f5 00 00   ................
0050  00 01 00 00 00 00 00 5a 7f 6b 39 68 3b            .......Z.k9h;

No.     Time           Source                Destination           Protocol Length Info
    162 6.822761       0x0203                0x0103                IEEE 802.15.4 34     Data, Dst: 0x0103, Src: 0x0203

0000  61 88 d7 32 33 03 01 03 02 0b 00 fd 09 00 00 07   a..23...........
0010  ff be 00 00 00 00 00 00 00 06 08 c0 04 03 a7 c1   ................
0020  5e 06                                             ^.

No.     Time           Source                Destination           Protocol Length Info
    164 6.875212       0x0103                0x0203                IEEE 802.15.4 53     Data, Dst: 0x0203, Src: 0x0103

0000  61 88 cd 32 33 03 02 03 01 fe 00 fd 1c 00 00 5f   a..23.........._
0010  03 01 21 00 00 ae 03 10 00 00 00 00 00 00 00 00   ..!.............
0020  00 0e 01 00 00 17 01 00 00 01 00 00 00 00 00 59   ...............Y
0030  7f 90 2b c7 ba                                    ..+..

No.     Time           Source                Destination           Protocol Length Info
    166 7.000085       0x0103                0x0203                IEEE 802.15.4 53     Data, Dst: 0x0203, Src: 0x0103

0000  61 88 ce 32 33 03 02 03 01 ff 00 fd 1c 00 00 60   a..23..........`
0010  03 01 21 00 00 2b 04 10 00 00 00 00 00 00 00 00   ..!..+..........
0020  00 0e 01 00 00 17 01 00 00 01 00 00 00 00 00 58   ...............X
0030  7f 3b 5f 93 10                                    .;_..

No.     Time           Source                Destination           Protocol Length Info
    168 7.125154       0x0103                0x0203                LwMesh   53     Lightweight Mesh, Nwk_Dst: 0x0000, Nwk_Src: 0x1cfd

0000  61 88 cf 32 33 03 02 03 01 01 00 fd 1c 00 00 61   a..23..........a
0010  03 01 21 00 00 a8 04 10 00 00 00 00 00 00 00 00   ..!.............
0020  00 ea 01 00 00 ee 01 00 00 01 00 00 00 00 00 58   ...............X
0030  7f 7b 61 28 5e                                    .{a(^

No.     Time           Source                Destination           Protocol Length Info
    170 7.255467       0x0103                0x0203                LwMesh   77     Encrypted data (55 byte(s)) NO DECRYPT KEY

0000  61 88 d0 32 33 03 02 03 01 02 00 fd 1f 00 00 62   a..23..........b
0010  03 01 01 00 00 0f fc 60 13 0f 1c 60 10 0f 9c 50   .......`...`...P
0020  01 ea 01 00 00 ff ff 00 00 00 00 00 00 00 00 00   ................
0030  00 00 00 ff 54 e4 fd 16 00 00 63 03 01 c1 00 00   ....T.....c.....
0040  00 00 00 00 f4 4a 43 3b 96 bc e0 28 17            .....JC;...(.

No.     Time           Source                Destination           Protocol Length Info
    172 7.273613       0x0103                0x0203                LwMesh   106    Encrypted data (84 byte(s)) NO DECRYPT KEY

0000  61 88 d1 32 33 03 02 03 01 03 00 3b 70 88 f0 3d   a..23......;p..=
0010  00 00 00 00 a5 01 c7 18 fd 1c 00 00 64 03 01 1e   ............d...
0020  00 00 28 05 10 00 c5 d4 a2 3d 9a 83 11 3b 80 f7   ..(......=...;..
0030  17 bf a0 2d 4c b9 73 e3 10 3a d4 a2 66 3b ac 74   ...-L.s..:..f;.t
0040  fd 1c 00 00 65 03 01 21 00 00 28 05 10 00 00 00   ....e..!..(.....
0050  00 00 00 00 00 00 0e 01 00 00 12 01 00 00 01 00   ................
0060  00 00 00 00 57 7f 64 f2 22 66                     ....W.d."f

No.     Time           Source                Destination           Protocol Length Info
    174 7.318969       0x0000                0x09fd                ZigBee   34     Unknown Command

0000  61 88 d2 32 33 03 02 03 01 04 00 fd 09 00 00 66   a..23..........f
0010  03 01 00 00 00 00 00 00 00 02 03 51 03 03 e6 e3   ...........Q....
0020  0d d2                                             ..

No.     Time           Source                Destination           Protocol Length Info
    176 7.375252       0x0000                0x1cfd                ZigBee   53     Route Request, Dst: 0xa300, Src: 0x0000

0000  61 88 d3 32 33 03 02 03 01 05 00 fd 1c 00 00 67   a..23..........g
0010  03 01 21 00 00 a3 05 10 00 00 00 00 00 00 00 00   ..!.............
0020  00 04 01 00 00 09 01 00 00 01 00 00 00 00 00 57   ...............W
0030  7f 8d a4 f7 f0                                    .....

No.     Time           Source                Destination           Protocol Length Info
    178 7.378684       0x0000                0x1cfd                ZigBee   53     Route Request, Dst: 0xa300, Src: 0x0000

0000  61 88 d3 32 33 03 02 03 01 05 00 fd 1c 00 00 67   a..23..........g
0010  03 01 21 00 00 a3 05 10 00 00 00 00 00 00 00 00   ..!.............
0020  00 04 01 00 00 09 01 00 00 01 00 00 00 00 00 57   ...............W
0030  7f 8d a4 f7 f0                                    .....

No.     Time           Source                Destination           Protocol Length Info
    180 7.499797       0x0103                0x0203                LwMesh   53     Encrypted data (31 byte(s)) NO DECRYPT KEY

0000  61 88 d4 32 33 03 02 03 01 06 00 fd 1c 00 00 68   a..23..........h
0010  03 01 21 00 00 1f 06 10 00 00 00 00 00 00 00 00   ..!.............
0020  00 36 01 00 00 3f 01 00 00 01 00 00 00 00 00 56   .6...?.........V
0030  7f 81 7b a9 55                                    ..{.U

No.     Time           Source                Destination           Protocol Length Info
    182 7.536408       0x0103                0x0203                LwMesh   38     Encrypted data (16 byte(s)) NO DECRYPT KEY

0000  61 88 d5 32 33 03 02 03 01 07 00 fd 0d 00 00 69   a..23..........i
0010  03 01 6f 00 00 00 00 00 00 00 00 00 00 1b 4e d0   ..o...........N.
0020  83 f4 24 b0 53 9e                                 ..$.S.

No.     Time           Source                Destination           Protocol Length Info
    184 7.625002       0x0000                0x1cfd                ZigBee   53     Unknown Command

0000  61 88 d6 32 33 03 02 03 01 08 00 fd 1c 00 00 6a   a..23..........j
0010  03 01 21 00 00 9d 06 10 00 00 00 00 00 00 00 00   ..!.............
0020  00 4a 01 00 00 53 01 00 00 00 00 00 00 00 00 56   .J...S.........V
0030  7f bc a6 7f ef                                    .....

No.     Time           Source                Destination           Protocol Length Info
    186 7.749680       0x0000                0x1cfd                ZigBee   53     Many-to-One Route Request, Dst: 0x1900, Src: 0x0000

0000  61 88 d7 32 33 03 02 03 01 09 00 fd 1c 00 00 6b   a..23..........k
0010  03 01 1e 00 00 19 07 10 00 f3 e1 a2 3d 0a 1b 13   ............=...
0020  3b 43 12 18 bf 8c 02 9d b9 f8 05 bf 37 58 d0 83   ;C..........7X..
0030  3b c3 62 7d 2c                                    ;.b},

No.     Time           Source                Destination           Protocol Length Info
    188 7.757119       0x0103                0x0203                LwMesh   53     Encrypted data (29 byte(s)) NO DECRYPT KEY

0000  61 88 d8 32 33 03 02 03 01 0a 00 fd 1c 00 00 6c   a..23..........l
0010  03 01 21 00 00 1e 07 10 00 00 00 00 00 00 00 00   ..!.............
0020  00 72 01 00 00 72 01 00 00 00 00 00 00 00 00 55   .r...r.........U
0030  7f 4b e4 f6 7e                                    .K..~

No.     Time           Source                Destination           Protocol Length Info
    190 7.823614       0x0203                0x0103                IEEE 802.15.4 34     Data, Dst: 0x0103, Src: 0x0203

0000  61 88 d8 32 33 03 01 03 02 0c 00 fd 09 00 00 08   a..23...........
0010  ff be 00 00 00 00 00 00 00 06 08 c0 04 03 20 23   .............. #
0020  cf bb                                             ..

No.     Time           Source                Destination           Protocol Length Info
    192 7.875116       0x0103                0x0203                LwMesh   53     Encrypted data (29 byte(s)) NO DECRYPT KEY

0000  61 88 d9 32 33 03 02 03 01 0b 00 fd 1c 00 00 6d   a..23..........m
0010  03 01 21 00 00 96 07 10 00 00 00 00 00 00 00 00   ..!.............
0020  00 a4 01 00 00 aa 01 00 00 00 00 00 00 00 00 54   ...............T
0030  7f 5a fb e2 65                                    .Z..e

No.     Time           Source                Destination           Protocol Length Info
    193 7.875611                                                   IEEE 802.15.4 5      Ack

Frame 193: 5 bytes on wire (40 bits), 5 bytes captured (40 bits)
    Encapsulation type: IEEE 802.15.4 Wireless PAN (104)
    Arrival Time: Mar  3, 2023 16:19:03.927074000 CST
    [Time shift for this packet: 0.000000000 seconds]
    Epoch Time: 1677881943.927074000 seconds
    [Time delta from previous captured frame: 0.000495000 seconds]
    [Time delta from previous displayed frame: 0.000495000 seconds]
    [Time since reference or first frame: 7.875611000 seconds]
    Frame Number: 193
    Frame Length: 5 bytes (40 bits)
    Capture Length: 5 bytes (40 bits)
    [Frame is marked: False]
    [Frame is ignored: False]
    [Protocols in frame: wpan]
IEEE 802.15.4 Ack, Sequence Number: 217
    Frame Control Field: 0x0002, Frame Type: Ack, Destination Addressing Mode: None, Frame Version: IEEE Std 802.15.4-2003, Source Addressing Mode: None
        .... .... .... .010 = Frame Type: Ack (0x2)
        .... .... .... 0... = Security Enabled: False
        .... .... ...0 .... = Frame Pending: False
        .... .... ..0. .... = Acknowledge Request: False
        .... .... .0.. .... = PAN ID Compression: False
        .... .... 0... .... = Reserved: False
        .... ...0 .... .... = Sequence Number Suppression: False
        .... ..0. .... .... = Information Elements Present: False
        .... 00.. .... .... = Destination Addressing Mode: None (0x0)
        ..00 .... .... .... = Frame Version: IEEE Std 802.15.4-2003 (0)
        00.. .... .... .... = Source Addressing Mode: None (0x0)
    Sequence Number: 217
    FCS: 0xfef4 (Correct)
    [Ack To: 192]
    [Ack Time: 0.495 ms]

0000  02 00 d9 f4 fe                                    .....

No.     Time           Source                Destination           Protocol Length Info
    194 7.999644       0x0103                0x0203                LwMesh   53     Lightweight Mesh, Nwk_Dst: 0x0000, Nwk_Src: 0x1cfd

Frame 194: 53 bytes on wire (424 bits), 53 bytes captured (424 bits)
    Encapsulation type: IEEE 802.15.4 Wireless PAN (104)
    Arrival Time: Mar  3, 2023 16:19:04.051107000 CST
    [Time shift for this packet: 0.000000000 seconds]
    Epoch Time: 1677881944.051107000 seconds
    [Time delta from previous captured frame: 0.124033000 seconds]
    [Time delta from previous displayed frame: 0.124033000 seconds]
    [Time since reference or first frame: 7.999644000 seconds]
    Frame Number: 194
    Frame Length: 53 bytes (424 bits)
    Capture Length: 53 bytes (424 bits)
    [Frame is marked: False]
    [Frame is ignored: False]
    [Protocols in frame: wpan:lwm:data]
IEEE 802.15.4 Data, Dst: 0x0203, Src: 0x0103
    Frame Control Field: 0x8861, Frame Type: Data, Acknowledge Request, PAN ID Compression, Destination Addressing Mode: Short/16-bit, Frame Version: IEEE Std 802.15.4-2003, Source Addressing Mode: Short/16-bit
        .... .... .... .001 = Frame Type: Data (0x1)
        .... .... .... 0... = Security Enabled: False
        .... .... ...0 .... = Frame Pending: False
        .... .... ..1. .... = Acknowledge Request: True
        .... .... .1.. .... = PAN ID Compression: True
        .... .... 0... .... = Reserved: False
        .... ...0 .... .... = Sequence Number Suppression: False
        .... ..0. .... .... = Information Elements Present: False
        .... 10.. .... .... = Destination Addressing Mode: Short/16-bit (0x2)
        ..00 .... .... .... = Frame Version: IEEE Std 802.15.4-2003 (0)
        10.. .... .... .... = Source Addressing Mode: Short/16-bit (0x2)
    Sequence Number: 218
    Destination PAN: 0x3332
    Destination: 0x0203
    Source: 0x0103
    FCS: 0xcca2 (Correct)
    [Ack In: 195]
Lightweight Mesh, Sequence Number: 0
    Frame control field: 0x0c
        .... ...0 = Acknowledgment Request: False
        .... ..0. = Security Enabled: False
        .... .1.. = Link Local: True
        .... 1... = Multicast: True
        0000 .... = Reserved bits: 0x0
    Sequence Number: 0
    Network Source Address: 0x1cfd (Routing node)
    Network Destination Address: 0x0000 (Group ID)
    Source Endpoint: 6
    Destination Endpoint: 14
    Multicast Header
        Non-member Radius: 3
        Maximum Non-member Radius: 0
        Member Radius: 1
        Maximum Member Radius: 0
    Data (33 bytes)
        Data: 2100001308100000000000000000004a0100004d01000000
        [Length: 33]

0000  61 88 da 32 33 03 02 03 01 0c 00 fd 1c 00 00 6e   a..23..........n
0010  03 01 21 00 00 13 08 10 00 00 00 00 00 00 00 00   ..!.............
0020  00 4a 01 00 00 4d 01 00 00 00 00 00 00 00 00 54   .J...M.........T
0030  7f 32 29 a2 cc                                    .2)..

No.     Time           Source                Destination           Protocol Length Info
    195 8.000162                                                   IEEE 802.15.4 5      Ack

Frame 195: 5 bytes on wire (40 bits), 5 bytes captured (40 bits)
    Encapsulation type: IEEE 802.15.4 Wireless PAN (104)
    Arrival Time: Mar  3, 2023 16:19:04.051625000 CST
    [Time shift for this packet: 0.000000000 seconds]
    Epoch Time: 1677881944.051625000 seconds
    [Time delta from previous captured frame: 0.000518000 seconds]
    [Time delta from previous displayed frame: 0.000518000 seconds]
    [Time since reference or first frame: 8.000162000 seconds]
    Frame Number: 195
    Frame Length: 5 bytes (40 bits)
    Capture Length: 5 bytes (40 bits)
    [Frame is marked: False]
    [Frame is ignored: False]
    [Protocols in frame: wpan]
IEEE 802.15.4 Ack, Sequence Number: 218
    Frame Control Field: 0x0002, Frame Type: Ack, Destination Addressing Mode: None, Frame Version: IEEE Std 802.15.4-2003, Source Addressing Mode: None
        .... .... .... .010 = Frame Type: Ack (0x2)
        .... .... .... 0... = Security Enabled: False
        .... .... ...0 .... = Frame Pending: False
        .... .... ..0. .... = Acknowledge Request: False
        .... .... .0.. .... = PAN ID Compression: False
        .... .... 0... .... = Reserved: False
        .... ...0 .... .... = Sequence Number Suppression: False
        .... ..0. .... .... = Information Elements Present: False
        .... 00.. .... .... = Destination Addressing Mode: None (0x0)
        ..00 .... .... .... = Frame Version: IEEE Std 802.15.4-2003 (0)
        00.. .... .... .... = Source Addressing Mode: None (0x0)
    Sequence Number: 218
    FCS: 0xcc6f (Correct)
    [Ack To: 194]
    [Ack Time: 0.518 ms]

0000  02 00 da 6f cc                                    ...o.

No.     Time           Source                Destination           Protocol Length Info
    196 8.125019       0x0103                0x0203                LwMesh   53     Lightweight Mesh, Nwk_Dst: 0x0000, Nwk_Src: 0x1cfd

Frame 196: 53 bytes on wire (424 bits), 53 bytes captured (424 bits)
    Encapsulation type: IEEE 802.15.4 Wireless PAN (104)
    Arrival Time: Mar  3, 2023 16:19:04.176482000 CST
    [Time shift for this packet: 0.000000000 seconds]
    Epoch Time: 1677881944.176482000 seconds
    [Time delta from previous captured frame: 0.124857000 seconds]
    [Time delta from previous displayed frame: 0.124857000 seconds]
    [Time since reference or first frame: 8.125019000 seconds]
    Frame Number: 196
    Frame Length: 53 bytes (424 bits)
    Capture Length: 53 bytes (424 bits)
    [Frame is marked: False]
    [Frame is ignored: False]
    [Protocols in frame: wpan:lwm:data]
IEEE 802.15.4 Data, Dst: 0x0203, Src: 0x0103
    Frame Control Field: 0x8861, Frame Type: Data, Acknowledge Request, PAN ID Compression, Destination Addressing Mode: Short/16-bit, Frame Version: IEEE Std 802.15.4-2003, Source Addressing Mode: Short/16-bit
        .... .... .... .001 = Frame Type: Data (0x1)
        .... .... .... 0... = Security Enabled: False
        .... .... ...0 .... = Frame Pending: False
        .... .... ..1. .... = Acknowledge Request: True
        .... .... .1.. .... = PAN ID Compression: True
        .... .... 0... .... = Reserved: False
        .... ...0 .... .... = Sequence Number Suppression: False
        .... ..0. .... .... = Information Elements Present: False
        .... 10.. .... .... = Destination Addressing Mode: Short/16-bit (0x2)
        ..00 .... .... .... = Frame Version: IEEE Std 802.15.4-2003 (0)
        10.. .... .... .... = Source Addressing Mode: Short/16-bit (0x2)
    Sequence Number: 219
    Destination PAN: 0x3332
    Destination: 0x0203
    Source: 0x0103
    FCS: 0x673f (Correct)
    [Ack In: 197]
Lightweight Mesh, Sequence Number: 0
    Frame control field: 0x0d
        .... ...1 = Acknowledgment Request: True
        .... ..0. = Security Enabled: False
        .... .1.. = Link Local: True
        .... 1... = Multicast: True
        0000 .... = Reserved bits: 0x0
    Sequence Number: 0
    Network Source Address: 0x1cfd (Routing node)
    Network Destination Address: 0x0000 (Group ID)
    Source Endpoint: 6
    Destination Endpoint: 15
    Multicast Header
        Non-member Radius: 3
        Maximum Non-member Radius: 0
        Member Radius: 1
        Maximum Member Radius: 0
    Data (33 bytes)
        Data: 210000900810000000000000000000a4010000ad01000000
        [Length: 33]

0000  61 88 db 32 33 03 02 03 01 0d 00 fd 1c 00 00 6f   a..23..........o
0010  03 01 21 00 00 90 08 10 00 00 00 00 00 00 00 00   ..!.............
0020  00 a4 01 00 00 ad 01 00 00 00 00 00 00 00 00 53   ...............S
0030  7f 04 49 3f 67                                    ..I?g

No.     Time           Source                Destination           Protocol Length Info
    197 8.125531                                                   IEEE 802.15.4 5      Ack

Frame 197: 5 bytes on wire (40 bits), 5 bytes captured (40 bits)
    Encapsulation type: IEEE 802.15.4 Wireless PAN (104)
    Arrival Time: Mar  3, 2023 16:19:04.176994000 CST
    [Time shift for this packet: 0.000000000 seconds]
    Epoch Time: 1677881944.176994000 seconds
    [Time delta from previous captured frame: 0.000512000 seconds]
    [Time delta from previous displayed frame: 0.000512000 seconds]
    [Time since reference or first frame: 8.125531000 seconds]
    Frame Number: 197
    Frame Length: 5 bytes (40 bits)
    Capture Length: 5 bytes (40 bits)
    [Frame is marked: False]
    [Frame is ignored: False]
    [Protocols in frame: wpan]
IEEE 802.15.4 Ack, Sequence Number: 219
    Frame Control Field: 0x0002, Frame Type: Ack, Destination Addressing Mode: None, Frame Version: IEEE Std 802.15.4-2003, Source Addressing Mode: None
        .... .... .... .010 = Frame Type: Ack (0x2)
        .... .... .... 0... = Security Enabled: False
        .... .... ...0 .... = Frame Pending: False
        .... .... ..0. .... = Acknowledge Request: False
        .... .... .0.. .... = PAN ID Compression: False
        .... .... 0... .... = Reserved: False
        .... ...0 .... .... = Sequence Number Suppression: False
        .... ..0. .... .... = Information Elements Present: False
        .... 00.. .... .... = Destination Addressing Mode: None (0x0)
        ..00 .... .... .... = Frame Version: IEEE Std 802.15.4-2003 (0)
        00.. .... .... .... = Source Addressing Mode: None (0x0)
    Sequence Number: 219
    FCS: 0xdde6 (Correct)
    [Ack To: 196]
    [Ack Time: 0.512 ms]

0000  02 00 db e6 dd                                    .....

No.     Time           Source                Destination           Protocol Length Info
    198 8.254965       0x0103                0x0203                IEEE 802.15.4 77     Data, Dst: 0x0203, Src: 0x0103

Frame 198: 77 bytes on wire (616 bits), 77 bytes captured (616 bits)
    Encapsulation type: IEEE 802.15.4 Wireless PAN (104)
    Arrival Time: Mar  3, 2023 16:19:04.306428000 CST
    [Time shift for this packet: 0.000000000 seconds]
    Epoch Time: 1677881944.306428000 seconds
    [Time delta from previous captured frame: 0.129434000 seconds]
    [Time delta from previous displayed frame: 0.129434000 seconds]
    [Time since reference or first frame: 8.254965000 seconds]
    Frame Number: 198
    Frame Length: 77 bytes (616 bits)
    Capture Length: 77 bytes (616 bits)
    [Frame is marked: False]
    [Frame is ignored: False]
    [Protocols in frame: wpan:data]
IEEE 802.15.4 Data, Dst: 0x0203, Src: 0x0103
    Frame Control Field: 0x8861, Frame Type: Data, Acknowledge Request, PAN ID Compression, Destination Addressing Mode: Short/16-bit, Frame Version: IEEE Std 802.15.4-2003, Source Addressing Mode: Short/16-bit
        .... .... .... .001 = Frame Type: Data (0x1)
        .... .... .... 0... = Security Enabled: False
        .... .... ...0 .... = Frame Pending: False
        .... .... ..1. .... = Acknowledge Request: True
        .... .... .1.. .... = PAN ID Compression: True
        .... .... 0... .... = Reserved: False
        .... ...0 .... .... = Sequence Number Suppression: False
        .... ..0. .... .... = Information Elements Present: False
        .... 10.. .... .... = Destination Addressing Mode: Short/16-bit (0x2)
        ..00 .... .... .... = Frame Version: IEEE Std 802.15.4-2003 (0)
        10.. .... .... .... = Source Addressing Mode: Short/16-bit (0x2)
    Sequence Number: 220
    Destination PAN: 0x3332
    Destination: 0x0203
    Source: 0x0103
    FCS: 0x3011 (Correct)
    [Ack In: 199]
Data (66 bytes)
    Data: 0e00fd1f00007003010100000ffc60130f1c60100f9c5001
    [Length: 66]

0000  61 88 dc 32 33 03 02 03 01 0e 00 fd 1f 00 00 70   a..23..........p
0010  03 01 01 00 00 0f fc 60 13 0f 1c 60 10 0f 9c 50   .......`...`...P
0020  01 f4 01 00 00 ff ff 00 00 00 00 00 00 00 00 00   ................
0030  00 00 00 ff 42 c1 fd 16 00 00 71 03 01 c1 00 00   ....B.....q.....
0040  00 00 00 00 1a 3e 1b 3b e0 f1 26 11 30            .....>.;..&.0

No.     Time           Source                Destination           Protocol Length Info
    199 8.255492                                                   IEEE 802.15.4 5      Ack

Frame 199: 5 bytes on wire (40 bits), 5 bytes captured (40 bits)
    Encapsulation type: IEEE 802.15.4 Wireless PAN (104)
    Arrival Time: Mar  3, 2023 16:19:04.306955000 CST
    [Time shift for this packet: 0.000000000 seconds]
    Epoch Time: 1677881944.306955000 seconds
    [Time delta from previous captured frame: 0.000527000 seconds]
    [Time delta from previous displayed frame: 0.000527000 seconds]
    [Time since reference or first frame: 8.255492000 seconds]
    Frame Number: 199
    Frame Length: 5 bytes (40 bits)
    Capture Length: 5 bytes (40 bits)
    [Frame is marked: False]
    [Frame is ignored: False]
    [Protocols in frame: wpan]
IEEE 802.15.4 Ack, Sequence Number: 220
    Frame Control Field: 0x0002, Frame Type: Ack, Destination Addressing Mode: None, Frame Version: IEEE Std 802.15.4-2003, Source Addressing Mode: None
        .... .... .... .010 = Frame Type: Ack (0x2)
        .... .... .... 0... = Security Enabled: False
        .... .... ...0 .... = Frame Pending: False
        .... .... ..0. .... = Acknowledge Request: False
        .... .... .0.. .... = PAN ID Compression: False
        .... .... 0... .... = Reserved: False
        .... ...0 .... .... = Sequence Number Suppression: False
        .... ..0. .... .... = Information Elements Present: False
        .... 00.. .... .... = Destination Addressing Mode: None (0x0)
        ..00 .... .... .... = Frame Version: IEEE Std 802.15.4-2003 (0)
        00.. .... .... .... = Source Addressing Mode: None (0x0)
    Sequence Number: 220
    FCS: 0xa959 (Correct)
    [Ack To: 198]
    [Ack Time: 0.527 ms]

0000  02 00 dc 59 a9                                    ...Y.

No.     Time           Source                Destination           Protocol Length Info
    200 8.273494       0x0103                0x0203                LwMesh   106    Encrypted data (82 byte(s)) NO DECRYPT KEY

Frame 200: 106 bytes on wire (848 bits), 106 bytes captured (848 bits)
    Encapsulation type: IEEE 802.15.4 Wireless PAN (104)
    Arrival Time: Mar  3, 2023 16:19:04.324957000 CST
    [Time shift for this packet: 0.000000000 seconds]
    Epoch Time: 1677881944.324957000 seconds
    [Time delta from previous captured frame: 0.018002000 seconds]
    [Time delta from previous displayed frame: 0.018002000 seconds]
    [Time since reference or first frame: 8.273494000 seconds]
    Frame Number: 200
    Frame Length: 106 bytes (848 bits)
    Capture Length: 106 bytes (848 bits)
    [Frame is marked: False]
    [Frame is ignored: False]
    [Protocols in frame: wpan:lwm:data]
IEEE 802.15.4 Data, Dst: 0x0203, Src: 0x0103
    Frame Control Field: 0x8861, Frame Type: Data, Acknowledge Request, PAN ID Compression, Destination Addressing Mode: Short/16-bit, Frame Version: IEEE Std 802.15.4-2003, Source Addressing Mode: Short/16-bit
        .... .... .... .001 = Frame Type: Data (0x1)
        .... .... .... 0... = Security Enabled: False
        .... .... ...0 .... = Frame Pending: False
        .... .... ..1. .... = Acknowledge Request: True
        .... .... .1.. .... = PAN ID Compression: True
        .... .... 0... .... = Reserved: False
        .... ...0 .... .... = Sequence Number Suppression: False
        .... ..0. .... .... = Information Elements Present: False
        .... 10.. .... .... = Destination Addressing Mode: Short/16-bit (0x2)
        ..00 .... .... .... = Frame Version: IEEE Std 802.15.4-2003 (0)
        10.. .... .... .... = Source Addressing Mode: Short/16-bit (0x2)
    Sequence Number: 221
    Destination PAN: 0x3332
    Destination: 0x0203
    Source: 0x0103
    FCS: 0xf2ab (Correct)
    [Ack In: 201]
Lightweight Mesh, Sequence Number: 0
    Frame control field: 0x0f
        .... ...1 = Acknowledgment Request: True
        .... ..1. = Security Enabled: True
        .... .1.. = Link Local: True
        .... 1... = Multicast: True
        0000 .... = Reserved bits: 0x0
    Sequence Number: 0
    Network Source Address: 0x5d3c (Routing node)
    Network Destination Address: 0xe74a (Group ID)
    Source Endpoint: 3
    Destination Endpoint: 13
    Multicast Header
        Non-member Radius: 0
        Maximum Non-member Radius: 0
        Member Radius: 0
        Maximum Member Radius: 0
    Message Integrity Code: 0x64c97f52
    [Expert Info (Note/Protocol): No encryption key set - can't decrypt]
        [No encryption key set - can't decrypt]
        [Severity level: Note]
        [Group: Protocol]
    Data (82 bytes)
        Data: 0000a5015a86fd1c00007203011e00000d0910008ee3a23d
        [Length: 82]

0000  61 88 dd 32 33 03 02 03 01 0f 00 3c 5d 4a e7 3d   a..23......<]J.=
0010  00 00 00 00 a5 01 5a 86 fd 1c 00 00 72 03 01 1e   ......Z.....r...
0020  00 00 0d 09 10 00 8e e3 a2 3d b9 0d 17 3b 56 32   .........=...;V2
0030  18 bf 42 ae 0f 3a c8 2e 24 39 0c 7b 76 3b 52 86   ..B..:..$9.{v;R.
0040  fd 1c 00 00 73 03 01 21 00 00 12 09 10 00 00 00   ....s..!........
0050  00 00 00 00 00 00 26 02 00 00 29 02 00 00 00 00   ......&...).....
0060  00 00 00 00 52 7f c9 64 ab f2                     ....R..d..

No.     Time           Source                Destination           Protocol Length Info
    201 8.274050                                                   IEEE 802.15.4 5      Ack

Frame 201: 5 bytes on wire (40 bits), 5 bytes captured (40 bits)
    Encapsulation type: IEEE 802.15.4 Wireless PAN (104)
    Arrival Time: Mar  3, 2023 16:19:04.325513000 CST
    [Time shift for this packet: 0.000000000 seconds]
    Epoch Time: 1677881944.325513000 seconds
    [Time delta from previous captured frame: 0.000556000 seconds]
    [Time delta from previous displayed frame: 0.000556000 seconds]
    [Time since reference or first frame: 8.274050000 seconds]
    Frame Number: 201
    Frame Length: 5 bytes (40 bits)
    Capture Length: 5 bytes (40 bits)
    [Frame is marked: False]
    [Frame is ignored: False]
    [Protocols in frame: wpan]
IEEE 802.15.4 Ack, Sequence Number: 221
    Frame Control Field: 0x0002, Frame Type: Ack, Destination Addressing Mode: None, Frame Version: IEEE Std 802.15.4-2003, Source Addressing Mode: None
        .... .... .... .010 = Frame Type: Ack (0x2)
        .... .... .... 0... = Security Enabled: False
        .... .... ...0 .... = Frame Pending: False
        .... .... ..0. .... = Acknowledge Request: False
        .... .... .0.. .... = PAN ID Compression: False
        .... .... 0... .... = Reserved: False
        .... ...0 .... .... = Sequence Number Suppression: False
        .... ..0. .... .... = Information Elements Present: False
        .... 00.. .... .... = Destination Addressing Mode: None (0x0)
        ..00 .... .... .... = Frame Version: IEEE Std 802.15.4-2003 (0)
        00.. .... .... .... = Source Addressing Mode: None (0x0)
    Sequence Number: 221
    FCS: 0xb8d0 (Correct)
    [Ack To: 200]
    [Ack Time: 0.556 ms]

0000  02 00 dd d0 b8                                    .....

No.     Time           Source                Destination           Protocol Length Info
    202 8.318548       0x0103                0x0203                IEEE 802.15.4 34     Data, Dst: 0x0203, Src: 0x0103

Frame 202: 34 bytes on wire (272 bits), 34 bytes captured (272 bits)
    Encapsulation type: IEEE 802.15.4 Wireless PAN (104)
    Arrival Time: Mar  3, 2023 16:19:04.370011000 CST
    [Time shift for this packet: 0.000000000 seconds]
    Epoch Time: 1677881944.370011000 seconds
    [Time delta from previous captured frame: 0.044498000 seconds]
    [Time delta from previous displayed frame: 0.044498000 seconds]
    [Time since reference or first frame: 8.318548000 seconds]
    Frame Number: 202
    Frame Length: 34 bytes (272 bits)
    Capture Length: 34 bytes (272 bits)
    [Frame is marked: False]
    [Frame is ignored: False]
    [Protocols in frame: wpan:data]
IEEE 802.15.4 Data, Dst: 0x0203, Src: 0x0103
    Frame Control Field: 0x8861, Frame Type: Data, Acknowledge Request, PAN ID Compression, Destination Addressing Mode: Short/16-bit, Frame Version: IEEE Std 802.15.4-2003, Source Addressing Mode: Short/16-bit
        .... .... .... .001 = Frame Type: Data (0x1)
        .... .... .... 0... = Security Enabled: False
        .... .... ...0 .... = Frame Pending: False
        .... .... ..1. .... = Acknowledge Request: True
        .... .... .1.. .... = PAN ID Compression: True
        .... .... 0... .... = Reserved: False
        .... ...0 .... .... = Sequence Number Suppression: False
        .... ..0. .... .... = Information Elements Present: False
        .... 10.. .... .... = Destination Addressing Mode: Short/16-bit (0x2)
        ..00 .... .... .... = Frame Version: IEEE Std 802.15.4-2003 (0)
        10.. .... .... .... = Source Addressing Mode: Short/16-bit (0x2)
    Sequence Number: 222
    Destination PAN: 0x3332
    Destination: 0x0203
    Source: 0x0103
    FCS: 0x92f9 (Correct)
    [Ack In: 203]
Data (23 bytes)
    Data: 1000fd0900007403010000000000000002035103035f56
    [Length: 23]

0000  61 88 de 32 33 03 02 03 01 10 00 fd 09 00 00 74   a..23..........t
0010  03 01 00 00 00 00 00 00 00 02 03 51 03 03 5f 56   ...........Q.._V
0020  f9 92                                             ..

No.     Time           Source                Destination           Protocol Length Info
    203 8.319008                                                   IEEE 802.15.4 5      Ack

Frame 203: 5 bytes on wire (40 bits), 5 bytes captured (40 bits)
    Encapsulation type: IEEE 802.15.4 Wireless PAN (104)
    Arrival Time: Mar  3, 2023 16:19:04.370471000 CST
    [Time shift for this packet: 0.000000000 seconds]
    Epoch Time: 1677881944.370471000 seconds
    [Time delta from previous captured frame: 0.000460000 seconds]
    [Time delta from previous displayed frame: 0.000460000 seconds]
    [Time since reference or first frame: 8.319008000 seconds]
    Frame Number: 203
    Frame Length: 5 bytes (40 bits)
    Capture Length: 5 bytes (40 bits)
    [Frame is marked: False]
    [Frame is ignored: False]
    [Protocols in frame: wpan]
IEEE 802.15.4 Ack, Sequence Number: 222
    Frame Control Field: 0x0002, Frame Type: Ack, Destination Addressing Mode: None, Frame Version: IEEE Std 802.15.4-2003, Source Addressing Mode: None
        .... .... .... .010 = Frame Type: Ack (0x2)
        .... .... .... 0... = Security Enabled: False
        .... .... ...0 .... = Frame Pending: False
        .... .... ..0. .... = Acknowledge Request: False
        .... .... .0.. .... = PAN ID Compression: False
        .... .... 0... .... = Reserved: False
        .... ...0 .... .... = Sequence Number Suppression: False
        .... ..0. .... .... = Information Elements Present: False
        .... 00.. .... .... = Destination Addressing Mode: None (0x0)
        ..00 .... .... .... = Frame Version: IEEE Std 802.15.4-2003 (0)
        00.. .... .... .... = Source Addressing Mode: None (0x0)
    Sequence Number: 222
    FCS: 0x8a4b (Correct)
    [Ack To: 202]
    [Ack Time: 0.460 ms]

0000  02 00 de 4b 8a                                    ...K.

No.     Time           Source                Destination           Protocol Length Info
    204 8.375128       0x0103                0x0203                IEEE 802.15.4 53     Data, Dst: 0x0203, Src: 0x0103

Frame 204: 53 bytes on wire (424 bits), 53 bytes captured (424 bits)
    Encapsulation type: IEEE 802.15.4 Wireless PAN (104)
    Arrival Time: Mar  3, 2023 16:19:04.426591000 CST
    [Time shift for this packet: 0.000000000 seconds]
    Epoch Time: 1677881944.426591000 seconds
    [Time delta from previous captured frame: 0.056120000 seconds]
    [Time delta from previous displayed frame: 0.056120000 seconds]
    [Time since reference or first frame: 8.375128000 seconds]
    Frame Number: 204
    Frame Length: 53 bytes (424 bits)
    Capture Length: 53 bytes (424 bits)
    [Frame is marked: False]
    [Frame is ignored: False]
    [Protocols in frame: wpan:data]
IEEE 802.15.4 Data, Dst: 0x0203, Src: 0x0103
    Frame Control Field: 0x8861, Frame Type: Data, Acknowledge Request, PAN ID Compression, Destination Addressing Mode: Short/16-bit, Frame Version: IEEE Std 802.15.4-2003, Source Addressing Mode: Short/16-bit
        .... .... .... .001 = Frame Type: Data (0x1)
        .... .... .... 0... = Security Enabled: False
        .... .... ...0 .... = Frame Pending: False
        .... .... ..1. .... = Acknowledge Request: True
        .... .... .1.. .... = PAN ID Compression: True
        .... .... 0... .... = Reserved: False
        .... ...0 .... .... = Sequence Number Suppression: False
        .... ..0. .... .... = Information Elements Present: False
        .... 10.. .... .... = Destination Addressing Mode: Short/16-bit (0x2)
        ..00 .... .... .... = Frame Version: IEEE Std 802.15.4-2003 (0)
        10.. .... .... .... = Source Addressing Mode: Short/16-bit (0x2)
    Sequence Number: 223
    Destination PAN: 0x3332
    Destination: 0x0203
    Source: 0x0103
    FCS: 0xa121 (Correct)
    [Ack In: 205]
Data (42 bytes)
    Data: 1100fd1c00007503012100008a0910000000000000000000
    [Length: 42]

0000  61 88 df 32 33 03 02 03 01 11 00 fd 1c 00 00 75   a..23..........u
0010  03 01 21 00 00 8a 09 10 00 00 00 00 00 00 00 00   ..!.............
0020  00 44 02 00 00 48 02 00 00 00 00 00 00 00 00 51   .D...H.........Q
0030  7f 20 19 21 a1                                    . .!.

No.     Time           Source                Destination           Protocol Length Info
    205 8.375682                                                   IEEE 802.15.4 5      Ack

Frame 205: 5 bytes on wire (40 bits), 5 bytes captured (40 bits)
    Encapsulation type: IEEE 802.15.4 Wireless PAN (104)
    Arrival Time: Mar  3, 2023 16:19:04.427145000 CST
    [Time shift for this packet: 0.000000000 seconds]
    Epoch Time: 1677881944.427145000 seconds
    [Time delta from previous captured frame: 0.000554000 seconds]
    [Time delta from previous displayed frame: 0.000554000 seconds]
    [Time since reference or first frame: 8.375682000 seconds]
    Frame Number: 205
    Frame Length: 5 bytes (40 bits)
    Capture Length: 5 bytes (40 bits)
    [Frame is marked: False]
    [Frame is ignored: False]
    [Protocols in frame: wpan]
IEEE 802.15.4 Ack, Sequence Number: 223
    Frame Control Field: 0x0002, Frame Type: Ack, Destination Addressing Mode: None, Frame Version: IEEE Std 802.15.4-2003, Source Addressing Mode: None
        .... .... .... .010 = Frame Type: Ack (0x2)
        .... .... .... 0... = Security Enabled: False
        .... .... ...0 .... = Frame Pending: False
        .... .... ..0. .... = Acknowledge Request: False
        .... .... .0.. .... = PAN ID Compression: False
        .... .... 0... .... = Reserved: False
        .... ...0 .... .... = Sequence Number Suppression: False
        .... ..0. .... .... = Information Elements Present: False
        .... 00.. .... .... = Destination Addressing Mode: None (0x0)
        ..00 .... .... .... = Frame Version: IEEE Std 802.15.4-2003 (0)
        00.. .... .... .... = Source Addressing Mode: None (0x0)
    Sequence Number: 223
    FCS: 0x9bc2 (Correct)
    [Ack To: 204]
    [Ack Time: 0.554 ms]

0000  02 00 df c2 9b                                    .....

No.     Time           Source                Destination           Protocol Length Info
    206 8.404897       0x0103                0x0203                IEEE 802.15.4 48     Data, Dst: 0x0203, Src: 0x0103

Frame 206: 48 bytes on wire (384 bits), 48 bytes captured (384 bits)
    Encapsulation type: IEEE 802.15.4 Wireless PAN (104)
    Arrival Time: Mar  3, 2023 16:19:04.456360000 CST
    [Time shift for this packet: 0.000000000 seconds]
    Epoch Time: 1677881944.456360000 seconds
    [Time delta from previous captured frame: 0.029215000 seconds]
    [Time delta from previous displayed frame: 0.029215000 seconds]
    [Time since reference or first frame: 8.404897000 seconds]
    Frame Number: 206
    Frame Length: 48 bytes (384 bits)
    Capture Length: 48 bytes (384 bits)
    [Frame is marked: False]
    [Frame is ignored: False]
    [Protocols in frame: wpan:data]
IEEE 802.15.4 Data, Dst: 0x0203, Src: 0x0103
    Frame Control Field: 0x8861, Frame Type: Data, Acknowledge Request, PAN ID Compression, Destination Addressing Mode: Short/16-bit, Frame Version: IEEE Std 802.15.4-2003, Source Addressing Mode: Short/16-bit
        .... .... .... .001 = Frame Type: Data (0x1)
        .... .... .... 0... = Security Enabled: False
        .... .... ...0 .... = Frame Pending: False
        .... .... ..1. .... = Acknowledge Request: True
        .... .... .1.. .... = PAN ID Compression: True
        .... .... 0... .... = Reserved: False
        .... ...0 .... .... = Sequence Number Suppression: False
        .... ..0. .... .... = Information Elements Present: False
        .... 10.. .... .... = Destination Addressing Mode: Short/16-bit (0x2)
        ..00 .... .... .... = Frame Version: IEEE Std 802.15.4-2003 (0)
        10.. .... .... .... = Source Addressing Mode: Short/16-bit (0x2)
    Sequence Number: 224
    Destination PAN: 0x3332
    Destination: 0x0203
    Source: 0x0103
    FCS: 0xcaf6 (Correct)
    [Ack In: 207]
Data (37 bytes)
    Data: 1200fd170000760301fd000004454b463220494d55312066
    [Length: 37]

0000  61 88 e0 32 33 03 02 03 01 12 00 fd 17 00 00 76   a..23..........v
0010  03 01 fd 00 00 04 45 4b 46 32 20 49 4d 55 31 20   ......EKF2 IMU1 
0020  66 6f 72 63 65 64 20 72 65 73 65 74 70 02 f6 ca   forced resetp...

No.     Time           Source                Destination           Protocol Length Info
    207 8.405433                                                   IEEE 802.15.4 5      Ack

Frame 207: 5 bytes on wire (40 bits), 5 bytes captured (40 bits)
    Encapsulation type: IEEE 802.15.4 Wireless PAN (104)
    Arrival Time: Mar  3, 2023 16:19:04.456896000 CST
    [Time shift for this packet: 0.000000000 seconds]
    Epoch Time: 1677881944.456896000 seconds
    [Time delta from previous captured frame: 0.000536000 seconds]
    [Time delta from previous displayed frame: 0.000536000 seconds]
    [Time since reference or first frame: 8.405433000 seconds]
    Frame Number: 207
    Frame Length: 5 bytes (40 bits)
    Capture Length: 5 bytes (40 bits)
    [Frame is marked: False]
    [Frame is ignored: False]
    [Protocols in frame: wpan]
IEEE 802.15.4 Ack, Sequence Number: 224
    Frame Control Field: 0x0002, Frame Type: Ack, Destination Addressing Mode: None, Frame Version: IEEE Std 802.15.4-2003, Source Addressing Mode: None
        .... .... .... .010 = Frame Type: Ack (0x2)
        .... .... .... 0... = Security Enabled: False
        .... .... ...0 .... = Frame Pending: False
        .... .... ..0. .... = Acknowledge Request: False
        .... .... .0.. .... = PAN ID Compression: False
        .... .... 0... .... = Reserved: False
        .... ...0 .... .... = Sequence Number Suppression: False
        .... ..0. .... .... = Information Elements Present: False
        .... 00.. .... .... = Destination Addressing Mode: None (0x0)
        ..00 .... .... .... = Frame Version: IEEE Std 802.15.4-2003 (0)
        00.. .... .... .... = Source Addressing Mode: None (0x0)
    Sequence Number: 224
    FCS: 0x52b6 (Correct)
    [Ack To: 206]
    [Ack Time: 0.536 ms]

0000  02 00 e0 b6 52                                    ....R

No.     Time           Source                Destination           Protocol Length Info
    208 8.424542       0x0103                0x0203                IEEE 802.15.4 66     Data, Dst: 0x0203, Src: 0x0103

Frame 208: 66 bytes on wire (528 bits), 66 bytes captured (528 bits)
    Encapsulation type: IEEE 802.15.4 Wireless PAN (104)
    Arrival Time: Mar  3, 2023 16:19:04.476005000 CST
    [Time shift for this packet: 0.000000000 seconds]
    Epoch Time: 1677881944.476005000 seconds
    [Time delta from previous captured frame: 0.019109000 seconds]
    [Time delta from previous displayed frame: 0.019109000 seconds]
    [Time since reference or first frame: 8.424542000 seconds]
    Frame Number: 208
    Frame Length: 66 bytes (528 bits)
    Capture Length: 66 bytes (528 bits)
    [Frame is marked: False]
    [Frame is ignored: False]
    [Protocols in frame: wpan:data]
IEEE 802.15.4 Data, Dst: 0x0203, Src: 0x0103
    Frame Control Field: 0x8861, Frame Type: Data, Acknowledge Request, PAN ID Compression, Destination Addressing Mode: Short/16-bit, Frame Version: IEEE Std 802.15.4-2003, Source Addressing Mode: Short/16-bit
        .... .... .... .001 = Frame Type: Data (0x1)
        .... .... .... 0... = Security Enabled: False
        .... .... ...0 .... = Frame Pending: False
        .... .... ..1. .... = Acknowledge Request: True
        .... .... .1.. .... = PAN ID Compression: True
        .... .... 0... .... = Reserved: False
        .... ...0 .... .... = Sequence Number Suppression: False
        .... ..0. .... .... = Information Elements Present: False
        .... 10.. .... .... = Destination Addressing Mode: Short/16-bit (0x2)
        ..00 .... .... .... = Frame Version: IEEE Std 802.15.4-2003 (0)
        10.. .... .... .... = Source Addressing Mode: Short/16-bit (0x2)
    Sequence Number: 225
    Destination PAN: 0x3332
    Destination: 0x0203
    Source: 0x0103
    FCS: 0x6eb9 (Correct)
    [Ack In: 209]
Data (55 bytes)
    Data: 1300fd290000770301fd000006454b463220494d55312069
    [Length: 55]

0000  61 88 e1 32 33 03 02 03 01 13 00 fd 29 00 00 77   a..23.......)..w
0010  03 01 fd 00 00 06 45 4b 46 32 20 49 4d 55 31 20   ......EKF2 IMU1 
0020  69 6e 69 74 69 61 6c 20 79 61 77 20 61 6c 69 67   initial yaw alig
0030  6e 6d 65 6e 74 20 63 6f 6d 70 6c 65 74 65 f0 c0   nment complete..
0040  b9 6e                                             .n

No.     Time           Source                Destination           Protocol Length Info
    209 8.424819                                                   IEEE 802.15.4 5      Ack

Frame 209: 5 bytes on wire (40 bits), 5 bytes captured (40 bits)
    Encapsulation type: IEEE 802.15.4 Wireless PAN (104)
    Arrival Time: Mar  3, 2023 16:19:04.476282000 CST
    [Time shift for this packet: 0.000000000 seconds]
    Epoch Time: 1677881944.476282000 seconds
    [Time delta from previous captured frame: 0.000277000 seconds]
    [Time delta from previous displayed frame: 0.000277000 seconds]
    [Time since reference or first frame: 8.424819000 seconds]
    Frame Number: 209
    Frame Length: 5 bytes (40 bits)
    Capture Length: 5 bytes (40 bits)
    [Frame is marked: False]
    [Frame is ignored: False]
    [Protocols in frame: wpan]
IEEE 802.15.4 Ack, Sequence Number: 225
    Frame Control Field: 0x0002, Frame Type: Ack, Destination Addressing Mode: None, Frame Version: IEEE Std 802.15.4-2003, Source Addressing Mode: None
        .... .... .... .010 = Frame Type: Ack (0x2)
        .... .... .... 0... = Security Enabled: False
        .... .... ...0 .... = Frame Pending: False
        .... .... ..0. .... = Acknowledge Request: False
        .... .... .0.. .... = PAN ID Compression: False
        .... .... 0... .... = Reserved: False
        .... ...0 .... .... = Sequence Number Suppression: False
        .... ..0. .... .... = Information Elements Present: False
        .... 00.. .... .... = Destination Addressing Mode: None (0x0)
        ..00 .... .... .... = Frame Version: IEEE Std 802.15.4-2003 (0)
        00.. .... .... .... = Source Addressing Mode: None (0x0)
    Sequence Number: 225
    FCS: 0x433f (Correct)
    [Ack To: 208]
    [Ack Time: 0.277 ms]

0000  02 00 e1 3f 43                                    ...?C

No.     Time           Source                Destination           Protocol Length Info
    210 8.500920       0x0103                0x0203                IEEE 802.15.4 53     Data, Dst: 0x0203, Src: 0x0103

Frame 210: 53 bytes on wire (424 bits), 53 bytes captured (424 bits)
    Encapsulation type: IEEE 802.15.4 Wireless PAN (104)
    Arrival Time: Mar  3, 2023 16:19:04.552383000 CST
    [Time shift for this packet: 0.000000000 seconds]
    Epoch Time: 1677881944.552383000 seconds
    [Time delta from previous captured frame: 0.076101000 seconds]
    [Time delta from previous displayed frame: 0.076101000 seconds]
    [Time since reference or first frame: 8.500920000 seconds]
    Frame Number: 210
    Frame Length: 53 bytes (424 bits)
    Capture Length: 53 bytes (424 bits)
    [Frame is marked: False]
    [Frame is ignored: False]
    [Protocols in frame: wpan:data]
IEEE 802.15.4 Data, Dst: 0x0203, Src: 0x0103
    Frame Control Field: 0x8861, Frame Type: Data, Acknowledge Request, PAN ID Compression, Destination Addressing Mode: Short/16-bit, Frame Version: IEEE Std 802.15.4-2003, Source Addressing Mode: Short/16-bit
        .... .... .... .001 = Frame Type: Data (0x1)
        .... .... .... 0... = Security Enabled: False
        .... .... ...0 .... = Frame Pending: False
        .... .... ..1. .... = Acknowledge Request: True
        .... .... .1.. .... = PAN ID Compression: True
        .... .... 0... .... = Reserved: False
        .... ...0 .... .... = Sequence Number Suppression: False
        .... ..0. .... .... = Information Elements Present: False
        .... 10.. .... .... = Destination Addressing Mode: Short/16-bit (0x2)
        ..00 .... .... .... = Frame Version: IEEE Std 802.15.4-2003 (0)
        10.. .... .... .... = Source Addressing Mode: Short/16-bit (0x2)
    Sequence Number: 226
    Destination PAN: 0x3332
    Destination: 0x0203
    Source: 0x0103
    FCS: 0x3ba1 (Correct)
    [Ack In: 211]
Data (42 bytes)
    Data: 1400fd1c0000780301210000080a10000000000000000000
    [Length: 42]

0000  61 88 e2 32 33 03 02 03 01 14 00 fd 1c 00 00 78   a..23..........x
0010  03 01 21 00 00 08 0a 10 00 00 00 00 00 00 00 00   ..!.............
0020  00 4a 01 00 00 53 01 00 00 00 00 00 00 00 00 51   .J...S.........Q
0030  7f a0 0a a1 3b                                    ....;

No.     Time           Source                Destination           Protocol Length Info
    211 8.501413                                                   IEEE 802.15.4 5      Ack

Frame 211: 5 bytes on wire (40 bits), 5 bytes captured (40 bits)
    Encapsulation type: IEEE 802.15.4 Wireless PAN (104)
    Arrival Time: Mar  3, 2023 16:19:04.552876000 CST
    [Time shift for this packet: 0.000000000 seconds]
    Epoch Time: 1677881944.552876000 seconds
    [Time delta from previous captured frame: 0.000493000 seconds]
    [Time delta from previous displayed frame: 0.000493000 seconds]
    [Time since reference or first frame: 8.501413000 seconds]
    Frame Number: 211
    Frame Length: 5 bytes (40 bits)
    Capture Length: 5 bytes (40 bits)
    [Frame is marked: False]
    [Frame is ignored: False]
    [Protocols in frame: wpan]
IEEE 802.15.4 Ack, Sequence Number: 226
    Frame Control Field: 0x0002, Frame Type: Ack, Destination Addressing Mode: None, Frame Version: IEEE Std 802.15.4-2003, Source Addressing Mode: None
        .... .... .... .010 = Frame Type: Ack (0x2)
        .... .... .... 0... = Security Enabled: False
        .... .... ...0 .... = Frame Pending: False
        .... .... ..0. .... = Acknowledge Request: False
        .... .... .0.. .... = PAN ID Compression: False
        .... .... 0... .... = Reserved: False
        .... ...0 .... .... = Sequence Number Suppression: False
        .... ..0. .... .... = Information Elements Present: False
        .... 00.. .... .... = Destination Addressing Mode: None (0x0)
        ..00 .... .... .... = Frame Version: IEEE Std 802.15.4-2003 (0)
        00.. .... .... .... = Source Addressing Mode: None (0x0)
    Sequence Number: 226
    FCS: 0x71a4 (Correct)
    [Ack To: 210]
    [Ack Time: 0.493 ms]

0000  02 00 e2 a4 71                                    ....q

No.     Time           Source                Destination           Protocol Length Info
    212 8.625941       0x0103                0x0203                IEEE 802.15.4 53     Data, Dst: 0x0203, Src: 0x0103

Frame 212: 53 bytes on wire (424 bits), 53 bytes captured (424 bits)
    Encapsulation type: IEEE 802.15.4 Wireless PAN (104)
    Arrival Time: Mar  3, 2023 16:19:04.677404000 CST
    [Time shift for this packet: 0.000000000 seconds]
    Epoch Time: 1677881944.677404000 seconds
    [Time delta from previous captured frame: 0.124528000 seconds]
    [Time delta from previous displayed frame: 0.124528000 seconds]
    [Time since reference or first frame: 8.625941000 seconds]
    Frame Number: 212
    Frame Length: 53 bytes (424 bits)
    Capture Length: 53 bytes (424 bits)
    [Frame is marked: False]
    [Frame is ignored: False]
    [Protocols in frame: wpan:data]
IEEE 802.15.4 Data, Dst: 0x0203, Src: 0x0103
    Frame Control Field: 0x8861, Frame Type: Data, Acknowledge Request, PAN ID Compression, Destination Addressing Mode: Short/16-bit, Frame Version: IEEE Std 802.15.4-2003, Source Addressing Mode: Short/16-bit
        .... .... .... .001 = Frame Type: Data (0x1)
        .... .... .... 0... = Security Enabled: False
        .... .... ...0 .... = Frame Pending: False
        .... .... ..1. .... = Acknowledge Request: True
        .... .... .1.. .... = PAN ID Compression: True
        .... .... 0... .... = Reserved: False
        .... ...0 .... .... = Sequence Number Suppression: False
        .... ..0. .... .... = Information Elements Present: False
        .... 10.. .... .... = Destination Addressing Mode: Short/16-bit (0x2)
        ..00 .... .... .... = Frame Version: IEEE Std 802.15.4-2003 (0)
        10.. .... .... .... = Source Addressing Mode: Short/16-bit (0x2)
    Sequence Number: 227
    Destination PAN: 0x3332
    Destination: 0x0203
    Source: 0x0103
    FCS: 0x10b5 (Correct)
    [Ack In: 213]
Data (42 bytes)
    Data: 1500fd1c0000790301210000850a10000000000000000000
    [Length: 42]

0000  61 88 e3 32 33 03 02 03 01 15 00 fd 1c 00 00 79   a..23..........y
0010  03 01 21 00 00 85 0a 10 00 00 00 00 00 00 00 00   ..!.............
0020  00 e4 02 00 00 e4 02 00 00 00 00 00 00 00 00 50   ...............P
0030  7f bd 54 b5 10                                    ..T..

No.     Time           Source                Destination           Protocol Length Info
    213 8.626348                                                   IEEE 802.15.4 5      Ack

Frame 213: 5 bytes on wire (40 bits), 5 bytes captured (40 bits)
    Encapsulation type: IEEE 802.15.4 Wireless PAN (104)
    Arrival Time: Mar  3, 2023 16:19:04.677811000 CST
    [Time shift for this packet: 0.000000000 seconds]
    Epoch Time: 1677881944.677811000 seconds
    [Time delta from previous captured frame: 0.000407000 seconds]
    [Time delta from previous displayed frame: 0.000407000 seconds]
    [Time since reference or first frame: 8.626348000 seconds]
    Frame Number: 213
    Frame Length: 5 bytes (40 bits)
    Capture Length: 5 bytes (40 bits)
    [Frame is marked: False]
    [Frame is ignored: False]
    [Protocols in frame: wpan]
IEEE 802.15.4 Ack, Sequence Number: 227
    Frame Control Field: 0x0002, Frame Type: Ack, Destination Addressing Mode: None, Frame Version: IEEE Std 802.15.4-2003, Source Addressing Mode: None
        .... .... .... .010 = Frame Type: Ack (0x2)
        .... .... .... 0... = Security Enabled: False
        .... .... ...0 .... = Frame Pending: False
        .... .... ..0. .... = Acknowledge Request: False
        .... .... .0.. .... = PAN ID Compression: False
        .... .... 0... .... = Reserved: False
        .... ...0 .... .... = Sequence Number Suppression: False
        .... ..0. .... .... = Information Elements Present: False
        .... 00.. .... .... = Destination Addressing Mode: None (0x0)
        ..00 .... .... .... = Frame Version: IEEE Std 802.15.4-2003 (0)
        00.. .... .... .... = Source Addressing Mode: None (0x0)
    Sequence Number: 227
    FCS: 0x602d (Correct)
    [Ack To: 212]
    [Ack Time: 0.407 ms]

0000  02 00 e3 2d 60                                    ...-`

No.     Time           Source                Destination           Protocol Length Info
    214 8.759182       0x0103                0x0203                IEEE 802.15.4 93     Data, Dst: 0x0203, Src: 0x0103

Frame 214: 93 bytes on wire (744 bits), 93 bytes captured (744 bits)
    Encapsulation type: IEEE 802.15.4 Wireless PAN (104)
    Arrival Time: Mar  3, 2023 16:19:04.810645000 CST
    [Time shift for this packet: 0.000000000 seconds]
    Epoch Time: 1677881944.810645000 seconds
    [Time delta from previous captured frame: 0.132834000 seconds]
    [Time delta from previous displayed frame: 0.132834000 seconds]
    [Time since reference or first frame: 8.759182000 seconds]
    Frame Number: 214
    Frame Length: 93 bytes (744 bits)
    Capture Length: 93 bytes (744 bits)
    [Frame is marked: False]
    [Frame is ignored: False]
    [Protocols in frame: wpan:data]
IEEE 802.15.4 Data, Dst: 0x0203, Src: 0x0103
    Frame Control Field: 0x8861, Frame Type: Data, Acknowledge Request, PAN ID Compression, Destination Addressing Mode: Short/16-bit, Frame Version: IEEE Std 802.15.4-2003, Source Addressing Mode: Short/16-bit
        .... .... .... .001 = Frame Type: Data (0x1)
        .... .... .... 0... = Security Enabled: False
        .... .... ...0 .... = Frame Pending: False
        .... .... ..1. .... = Acknowledge Request: True
        .... .... .1.. .... = PAN ID Compression: True
        .... .... 0... .... = Reserved: False
        .... ...0 .... .... = Sequence Number Suppression: False
        .... ..0. .... .... = Information Elements Present: False
        .... 10.. .... .... = Destination Addressing Mode: Short/16-bit (0x2)
        ..00 .... .... .... = Frame Version: IEEE Std 802.15.4-2003 (0)
        10.. .... .... .... = Source Addressing Mode: Short/16-bit (0x2)
    Sequence Number: 228
    Destination PAN: 0x3332
    Destination: 0x0203
    Source: 0x0103
    FCS: 0xbc0d (Correct)
    [Ack In: 215]
Data (82 bytes)
    Data: 1600fd1c00007a03011e0000020b1000f6f0a23dfb10153b
    [Length: 82]

0000  61 88 e4 32 33 03 02 03 01 16 00 fd 1c 00 00 7a   a..23..........z
0010  03 01 1e 00 00 02 0b 10 00 f6 f0 a2 3d fb 10 15   ............=...
0020  3b 5a 52 18 bf f2 09 92 3a c8 87 e8 39 24 c7 6d   ;ZR.....:...9$.m
0030  3b da c1 fd 1c 00 00 7b 03 01 21 00 00 02 0b 10   ;......{..!.....
0040  00 00 00 00 00 00 00 00 00 6c 02 00 00 6d 02 00   .........l...m..
0050  00 00 00 00 00 00 00 4f 7f 2e fe 0d bc            .......O.....

No.     Time           Source                Destination           Protocol Length Info
    215 8.759702                                                   IEEE 802.15.4 5      Ack

Frame 215: 5 bytes on wire (40 bits), 5 bytes captured (40 bits)
    Encapsulation type: IEEE 802.15.4 Wireless PAN (104)
    Arrival Time: Mar  3, 2023 16:19:04.811165000 CST
    [Time shift for this packet: 0.000000000 seconds]
    Epoch Time: 1677881944.811165000 seconds
    [Time delta from previous captured frame: 0.000520000 seconds]
    [Time delta from previous displayed frame: 0.000520000 seconds]
    [Time since reference or first frame: 8.759702000 seconds]
    Frame Number: 215
    Frame Length: 5 bytes (40 bits)
    Capture Length: 5 bytes (40 bits)
    [Frame is marked: False]
    [Frame is ignored: False]
    [Protocols in frame: wpan]
IEEE 802.15.4 Ack, Sequence Number: 228
    Frame Control Field: 0x0002, Frame Type: Ack, Destination Addressing Mode: None, Frame Version: IEEE Std 802.15.4-2003, Source Addressing Mode: None
        .... .... .... .010 = Frame Type: Ack (0x2)
        .... .... .... 0... = Security Enabled: False
        .... .... ...0 .... = Frame Pending: False
        .... .... ..0. .... = Acknowledge Request: False
        .... .... .0.. .... = PAN ID Compression: False
        .... .... 0... .... = Reserved: False
        .... ...0 .... .... = Sequence Number Suppression: False
        .... ..0. .... .... = Information Elements Present: False
        .... 00.. .... .... = Destination Addressing Mode: None (0x0)
        ..00 .... .... .... = Frame Version: IEEE Std 802.15.4-2003 (0)
        00.. .... .... .... = Source Addressing Mode: None (0x0)
    Sequence Number: 228
    FCS: 0x1492 (Correct)
    [Ack To: 214]
    [Ack Time: 0.520 ms]

0000  02 00 e4 92 14                                    .....

No.     Time           Source                Destination           Protocol Length Info
    216 8.821065       0x0203                0x0103                IEEE 802.15.4 34     Data, Dst: 0x0103, Src: 0x0203

Frame 216: 34 bytes on wire (272 bits), 34 bytes captured (272 bits)
    Encapsulation type: IEEE 802.15.4 Wireless PAN (104)
    Arrival Time: Mar  3, 2023 16:19:04.872528000 CST
    [Time shift for this packet: 0.000000000 seconds]
    Epoch Time: 1677881944.872528000 seconds
    [Time delta from previous captured frame: 0.061363000 seconds]
    [Time delta from previous displayed frame: 0.061363000 seconds]
